:020000040800F2
:10000000E00F0020390200083D1A00088F16000892
:10001000391A0008870D0008AF2900080000000009
:10002000000000000000000000000000D5230008D0
:10003000F910000800000000C11F00082D2500086D
:1000400053020008530200085302000891210008DF
:10005000530200085302000853020008530200082C
:10006000530200085302000853020008530200081C
:10007000530200085302000853020008530200080C
:1000800053020008530200085302000853020008FC
:1000900053020008530200085302000853020008EC
:1000A00053020008530200085302000853020008DC
:1000B0005302000899250008530200085302000863
:1000C00053020008530200085302000853020008BC
:1000D00053020008B5270008530200085302000825
:1000E000FD100008530200085302000853020008E4
:1000F000530200085302000853020008530200088C
:1001000053020008DD2100085302000853020008D2
:10011000530200085302000853020008B9250008E2
:10012000F10D0008530200085302000853020008B2
:10013000530200085302000853020008530200084B
:10014000530200085302000853020008530200083B
:100150005302000853020008250E0008530200084D
:10016000530200085302000853020008530200081B
:10017000530200085302000853020008530200080B
:10018000530200085302000800F002F800F044F89F
:100190000AA090E8000C82448344AAF10107DA45E2
:1001A00001D100F039F8AFF2090EBAE80F0013F0F0
:1001B000010F18BFFB1A43F001031847C0350000B8
:1001C000E0350000103A24BF78C878C1FAD8520749
:1001D00024BF30C830C144BF04680C6070470000C1
:1001E0000023002400250026103A28BF78C1FBD840
:1001F000520728BF30C148BF0B607047642900F028
:100200007D80782900F0B680002070471FB502F08D
:100210007DFD1FBD10B510BD00F028FA1146FFF797
:10022000F5FF02F071FC00F046FA03B4FFF7F2FFAD
:1002300003BC02F0D3FB000009488047094800478F
:10024000FEE7FEE7FEE7FEE7FEE7FEE7FEE7FEE786
:10025000FEE7FEE704480549054A064B70470000E3
:100260003125000889010008E0090020E00F002086
:10027000E00B0020E00B0020704700000FB40449A1
:1002800010B503AA029800F065F910BC5DF814FBE4
:100290005C0000202DE9F0410E460446002020625B
:1002A0002046E168884730B3252805D0D4E90121EC
:1002B0009047206A401CF2E7E16820460027884703
:1002C000050018D0A5F14100192802D820354FF4B7
:1002D00000673246294620462760FFF78FFF40B16E
:1002E000012804D0F61D26F007060836D8E7361D8B
:1002F000D6E72846DAE7206ABDE8F0812DE9F0412B
:100300000646002410687529314616A510D0AFF3B3
:100310000080002802DA404213A507E031688A070E
:1003200001D512A502E0490704D511A5012401E079
:10033000AFF3008000210A2206F1240709E0B0FB98
:10034000F2FCB0FBF2F302FB1C003030785418468C
:10035000491C0028F3D123462A463046BDE8F04127
:1003600000F09FB8000000002D0000002B000000EE
:100370002000000070B504460D4621461068AFF31A
:1003800000802188090502D50F4A7A4402E00E4A0E
:100390007A440E32002104F1240305E000F00F0638
:1003A0000009965D5E54491C0028F7D1207800238F
:1003B000000704D5702D02D009B102231132204666
:1003C000BDE8704000F06DB8C4330000032A40F26D
:1003D000308010F0030C00F0158011F8013BBCF1E7
:1003E000020F624498BF11F801CB00F8013B38BFFF
:1003F00011F8013BA2F1040298BF00F801CB38BF0D
:1004000000F8013B11F0030300F0B680083AC0F099
:10041000088051F8043B083A51F804CBA0E80810D2
:10042000F5E7121D5CBF51F8043B40F8043BAFF305
:100430000080D20724BF11F8013B11F801CB48BF5F
:1004400011F8012B24BF00F8013B00F801CB48BF95
:1004500000F8012B70474FF000020429C0F0128011
:1004600010F0030C00F0BC80CCF1040CBCF1020FC6
:1004700018BF00F8012BA8BF20F8022BA1EB0C013C
:1004800000F0AEB85FEAC17C24BF00F8012B00F891
:10049000012B48BF00F8012B704770477047704729
:1004A00070472DE9F0470D4699469246044600F103
:1004B00024080168880604D5E06921F01001216054
:1004C00000E00120A84201DD471B00E00027A169F0
:1004D0007A1902EB0900081AA0612078C00602D43C
:1004E0002046AFF30080002608E0D4E901211AF885
:1004F00006009047206A401C761C20624E45F4DBC3
:100500002078C0060AD52046AFF3008006E0D4E983
:10051000012130209047206A401C2062381EA7F13C
:100520000107F4DC07E0D4E9012118F80500904741
:10053000206A401C2062281EA5F10105F3DC20463C
:10054000AFF300802078000602D50220BDE8F087D6
:100550000120FBE7074B70B50D467B4400F06BF8BC
:100560000446284600F07AF810B14FF0FF3070BD15
:10057000204670BD4725000010B5203AC0F00B8022
:10058000B1E81850203AA0E81850B1E81850A0E897
:100590001850BFF4F5AF5FEA027C24BFB1E81850F1
:1005A000A0E8185044BF18C918C0BDE810405FEA61
:1005B000827C24BF51F8043B40F8043B08BF7047DD
:1005C000D20728BF31F8023B48BF11F8012B28BFE2
:1005D00020F8023B48BF00F8012B70474FF00002A3
:1005E00000B5134694469646203922BFA0E80C5029
:1005F000A0E80C50B1F12001BFF4F7AF090728BF04
:10060000A0E80C5048BF0CC05DF804EB890028BF7F
:1006100040F8042B08BF704748BF20F8022B11F0A8
:10062000804F18BF00F8012B7047000001694A1C79
:1006300002610878704700B58FB0CDE90131002123
:10064000059105497944CDE9031011466846FFF745
:1006500021FE0FB000BD0000E5FFFFFF007B00F0B2
:100660008000704700487047800900207546FFF7FA
:10067000F9FFAE4605006946534620F0070085465F
:1006800018B020B5FFF7E6FDBDE820404FF00006AA
:100690004FF000074FF000084FF0000B21F007016A
:1006A000AC46ACE8C009ACE8C009ACE8C009ACE8AD
:1006B000C0098D46704710B50446AFF30080204650
:1006C000BDE81040FFF7B1BD00B5A3B00121042083
:1006D00001F078FC0121082001F074FC01211020B8
:1006E00001F070FC0121202001F06CFC02220621A7
:1006F0009A4800F0A9FF4020219002208DF8880040
:1007000000208DF88A0003208DF8890000208DF8E4
:100710008B0021A9914800F04FFF4FF480502190A9
:1007200021A98F4800F048FF4FF40050219000208D
:100730008DF8880021A98A4800F03EFF01208949F0
:1007400008600121084601F04DFC0C22002184487C
:1007500000F07AFF0C220121814800F075FF0C2285
:1007600004217F4800F070FF0C2205217C4800F036
:100770006BFF0C2207217A4800F066FF0C2208214B
:10078000774800F061FF0C220921754800F05CFFFA
:100790000C220A21724800F057FF0C220E217048EB
:1007A00000F052FF0C220F216D4800F04DFF4CF27B
:1007B000B370219002208DF8880003208DF8890005
:1007C00000208DF88A008DF88B0021A9644800F084
:1007D000F3FE0C220721644800F036FF0C220821AA
:1007E000614800F031FF0C2209215F4800F02CFF26
:1007F0000C220A215C4800F027FF0C220B215A48EA
:1008000000F022FF0C221146574800F01DFF0C2279
:100810000D21554800F018FF0C220E21524800F01F
:1008200013FF0C220F21504800F00EFF4FF680708E
:10083000219021A94C4800F0BFFE03200B9000201E
:100840000C9006200D9001200E9000200F9010902B
:100850001190129013901490102015900020169073
:100860001790189019901A904FF480501B90002008
:100870001C901D901E900BA81F90209012A800F0B5
:1008800009FE0121002000F0EBFD00F09BF80121A2
:10089000022001F0B7FB5320099040F2E730ADF899
:1008A00020000020ADF82800ADF8220008A92F484C
:1008B00001F03EFF6020ADF80C000120ADF80E0005
:1008C00005900220ADF8180003A9284801F0E8FEC1
:1008D0000821264801F022FF0121244801F0AAFE48
:1008E0001D208DF8080001208DF809008DF80A0000
:1008F0008DF80B0002A801F0A3F8012211461B4855
:1009000001F0C4FE0121194801F0A3FE0121880372
:1009100001F088FB0D21032001F05EFD4FF4005033
:10092000009000208DF804000C208DF805000120B7
:100930008DF80600684600F03BFC28208DF8080082
:1009400001208DF80B0000208DF809008DF80A00B9
:1009500002A801F075F823B000BD000000080240B5
:10096000000C02409C824142001002400004004002
:100970004FF0C041098809B201804FF0C041098899
:1009800009B241804FF0C041098809B281804FF01F
:10099000C041098809B2C1804FF0C041098809B23D
:1009A00001814FF0C041098809B241814FF0C04137
:1009B000098809B281814FF0C041098809B2C1811B
:1009C0007047000000200749086001200649C1F86F
:1009D000B002044908600860086000200249C1F8BC
:1009E000B0027047B08241420080414200B59DB0E4
:1009F0000121042001F0E6FA0121080201F012FBB6
:100A00000F201B9003208DF8700000208DF87300DC
:100A100003208DF871001BA9494800F0CDFD00208E
:100A200017904FF4A0601A904FF480401990800006
:100A3000189017A800F0EEF80020119001208DF812
:100A400048008DF8490000201390159004208DF87F
:100A5000580011A93B4800F00BF9022301220A219A
:100A6000384800F02FF902231A460B21354800F0D0
:100A700029F9022303220C21324800F023F9022332
:100A800004220D212F4800F01DF901212D4800F00E
:100A9000E4F801212B4800F0D5F80121294800F0A5
:100AA000ADF80121880501F08DFA0020029025485B
:100AB0004C3003902448049000200590202006909C
:100AC000002007904FF4806008904000099080005B
:100AD0000A9040110B9000020C9000200D90032012
:100AE0000E9000200F90109002A9184800F0D6FA3E
:100AF0001021164800F0B2F901221021134800F02D
:100B0000AFFA38208DF8040001208DF805008DF82B
:100B100006008DF8070001A800F092FF00BF0B4807
:100B200000F06EFA0028FAD10121084800F0B0F96F
:100B3000044800F023F90120054908701DB000BDEC
:100B40000008024000200140F4010020106402402F
:100B50002E0000200022028042808280C28000217C
:100B600020E00288194B33F831301A4412B2028067
:100B70004288164B03EBC1035B881A4412B24280D1
:100B80008288124B03EBC1039B881A4412B2828005
:100B9000C2880E4B03EBC103DB881A4412B2C28039
:100BA0004A1CD1B20829DCDBB0F900201211028006
:100BB000B0F9022012114280B0F904201211828093
:100BC000B0F906201211C28070470000F401002025
:100BD00010B500BF074800780028FBD00020054969
:100BE00008700121044800F009F8034800F0C6F835
:100BF00010BD00002E0000200020014021B18268BD
:100C000042F00102826003E0826822F00102826009
:100C1000704700000021084A1168084A1140D0E9D5
:100C200000231A4383681A43C3681A431143044AD2
:100C3000C2F804137047000004230140E030FCFFB9
:100C40000020014021B1826842F48072826003E09A
:100C5000826822F480728260704721B1826842F417
:100C60000072826003E0826822F400728260704742
:100C700030B50246002000235068104C20400D790A
:100C80000C6844EA05242043506090680C4C2040D6
:100C9000D1E903542C438D682C434D7944EA450433
:100CA00020439060D06A20F470000C7D641EE4B292
:100CB000234340EA0350D06230BD0000FFFEFFFC3A
:100CC000FDF7FFC0F0B504460D4600200021092DB8
:100CD00011DDE068A5F10A0606EB4607072606FACD
:100CE00007F18843A5F10A0606EB460603FA06F16A
:100CF0000843E0600CE0206905EB4507072606FA8B
:100D000007F1884305EB450603FA06F10843206125
:100D1000072A0FDA606B561E06EB86071F2606FAB7
:100D200007F18843561E06EB860605FA06F10843CE
:100D3000606322E00D2A0FDA206BD61F06EB8607D0
:100D40001F2606FA07F18843D61F06EB860605FA2A
:100D500006F10843206310E0E06AA2F10D0606EBFD
:100D600086071F2606FA07F18843A2F10D0606EB57
:100D7000860605FA06F10843E062F0BD816841F09D
:100D800080418160704700BFFEE7000070B50446F7
:100D900005E01648056805F0450000B100E0F8E7F9
:100DA00000BF042001F00EFA20B1042001F004FA83
:100DB000032070BD012001F005FA20B1012001F0EF
:100DC000FBF90120F5E7094824380068A04201D06A
:100DD0001020EEE740F2FF5001F0EEF90348203812
:100DE000006808210840C0B2E3E70000342C01404D
:100DF00010B50849084800F011F9012809D1074940
:100E000008700449044800F029F800210448FFF75D
:100E1000F5FE10BD20800010106402402E0000205E
:100E20000020014010B50B490B4800F0F7F80128ED
:100E30000ED14FF00451084800F0F0F820B14FF007
:100E40000451054800F00AF80249034800F006F88A
:100E500010BD000000800028B86402400246094B23
:100E60009A4201D2084801E00648103801F00053C8
:100E70001BB1064B0B40C36002E0044B0B40836088
:100E80007047000010640240006002407D0F7D0F3B
:100E900021B1026842F00102026003E0026822F020
:100EA0000102026070470000016821F00101016049
:100EB0000021016041608160C160016121214161C7
:100EC0004A49884204D13D21484A103A91608CE059
:100ED00046491831884205D14FF47461434A103AAB
:100EE000916082E041493031884205D14FF474115C
:100EF0003E4A103A916078E03C494831884205D139
:100F00004FF07461394A103A91606EE037496031B0
:100F1000884204D13649354A103AD16065E03349F8
:100F20007831884204D13349304A103AD1605CE0CC
:100F30002E499031884204D12F492C4A103AD16071
:100F400053E02A49A831884205D14FF03D51274A44
:100F5000103AD16049E02949884204D13D21274A0D
:100F6000083A116041E025491831884205D14FF413
:100F70007461224A083A116037E0204930318842D2
:100F800005D14FF474111D4A083A11602DE01B4938
:100F90004831884205D14FF07461184A083A11600F
:100FA00023E016496031884204D11149134A121FC7
:100FB00011601AE011497831884204D10D490F4A75
:100FC000121F116011E00D499031884204D10A4985
:100FD0000A4A121F116008E00849A831884204D16A
:100FE0004FF03D51054A121F1160704710600240DA
:100FF0003D000020400F002000003D201064024012
:10100000014600200A6802F001020AB1012000E056
:10101000002070470146486880B2704730B50346EB
:101020000A46002000240B4DAB4201D20A4901E0E0
:101030000849103902F000550DB14C6800E00C6809
:10104000064D2C4004EA02050DB1012000E000200D
:1010500030BD000010640240006002407D0F7D0F33
:1010600010B501F080034BB122B1436943F0800316
:10107000436103E0436923F08003436180290BD07F
:101080002AB1036801F01E042343036004E00368EF
:1010900001F01E04A343036010BD000010B5002240
:1010A0000268134B1A40CC680B6823434C692343F6
:1010B0008C692343CC6923430C6A23434C6A234342
:1010C0008C6A23434C6B23438C6B23431A4302608B
:1010D000426922F00702D1E90B3423431A434261EB
:1010E0000B6943604B6883608B68C36010BD000070
:1010F0003F801CF0416070477047000010B54FF40E
:10110000005000F049F888B31E48FFF731FC1D4835
:101110001030FFF71FFD30211A48083800F00AFC94
:101120001848303890F9820000280ADB9FED160A33
:101130001448303890F98210483000EB810080ED7F
:10114000000A1048303890F9830000280ADB9FED30
:101150000E0A0C48303890F98310483000EB8100BB
:1011600080ED000A4FF4005000F010F84FF40060DA
:1011700000F012F828B101F01DFC4FF4006000F0FF
:1011800005F810BD90000020000000000149086033
:1011900070470000143C014001460020034A1268D9
:1011A0000A400AB1012000E000207047143C0140D1
:1011B000002123498279002A3AD00A46126803683E
:1011C0009A430B461A600A1D126803689A430B1D66
:1011D0001A60027911440A6803681A430A60184ABF
:1011E0000832126803689A43154B08331A601A1DB7
:1011F000126803689A43124B0C331A604279102A22
:101200000ED11A1F126803681A430D4B08331A6077
:101210001A1D126803681A43094B0C331A600DE05B
:101220000749427911440A6803681A430A6005E0D5
:10123000027911440A6803689A430A607047000003
:10124000003C014000B587B00121022000F0BAFE49
:101250000121880300F0D6FE4FF460400590022083
:101260008DF8180000208DF81A0003208DF8190061
:1012700001208DF81B0005A9224800F09DF94FF4CC
:101280008050059001208DF8180003208DF819007A
:1012900005A91C4800F090F905220D21194800F01D
:1012A000D3F905220E21174800F0CEF905220F21AF
:1012B000144800F0C9F90020ADF800004FF4827026
:1012C000ADF802000020ADF80400ADF80600ADF85E
:1012D00008004FF40070ADF80A000020ADF80C00D3
:1012E000ADF80E000720ADF810006946064801F081
:1012F00053F80121044801F035F801200349086042
:1013000007B000BD0004024000380040B0824042F7
:101310002DE9F04704460E46174604F0FF084FEA51
:10132000142900200D490860032000F03DF84846CC
:1013300000F03AF8404600F037F8094801F027F885
:10134000002504E000F00EF87855681C85B2B5421F
:10135000F8DB012001490860BDE8F087B082404217
:101360000038004010B500BF02210E4801F006F819
:101370000028F9D0FF210B4801F00CF800BF012133
:10138000084800F0FBFF0028F9D0064800F0FFFFF6
:10139000C4B200BF8021034800F0F0FF0128F9D05B
:1013A000204610BD0038004010B5044600BF0221A1
:1013B0000B4800F0E3FF0028F9D02146084800F070
:1013C000E9FF00BF0221064800F0D8FF0028F9D04D
:1013D00000BF8021024800F0D1FF0128F9D010BDE4
:1013E000003800402DE9F04704460E46174600201D
:1013F000194908600620FFF7D7FF01201749C1F8F7
:10140000B00204F0FF084FEA1429002012490860D6
:101410000220FFF7C9FF4846FFF7C6FF4046FFF727
:10142000C3FF002504E0785DFFF7BEFF681C85B2AE
:10143000B542F8DB0120084908600849C1F8B0024C
:101440000020054908600420FFF7AEFF0120034992
:10145000C1F8B002BDE8F087B0824042008040424F
:1014600051B18200A2F1C042126842F00103820031
:10147000A2F1C042136009E08200A2F1C0421268EA
:10148000034B1A408300A3F1C0431A607047000069
:10149000FEFF0F0030B50021002200230468A400E5
:1014A000A4F1C0442168424C2140D0E901452C43BD
:1014B000C5682C4305692C4345692C4385692C4339
:1014C000C5692C43056A2C43456A2C43856A2C4325
:1014D000C56A2C43056B2C4321430468A400A4F186
:1014E000C04421608468082C0BD10468A400A4F1D6
:1014F000C044246844F040050468A400A4F1C0443A
:1015000025600468641CA400A4F1C044226802F0B1
:101510004042446B2468456B6D6844EA0514456B92
:10152000AD6844EA0524456BAD8944EA0544456B42
:101530002D8A44EA0554456B2D7D44EA0564456BCC
:10154000AD692C4322430468641CA400A4F1C04488
:101550002260C46AB4F5804F20D10468A400A4F1CD
:10156000C044D4F80431134C2340846B2468856B49
:101570006D6844EA0514856BAD6844EA0524856B03
:10158000AD8944EA0544856BAD692C432343046867
:10159000A400A4F1C044C4F8043107E06FF0704522
:1015A0000468A400A4F1C044C4F8045130BD000094
:1015B0008000F7FF0000F0CFF0B50A4600210023BD
:1015C000002400BF3DE0012505FA01F3156805EA96
:1015D00003049C4234D105684F000326BE40B54346
:1015E000056015794E00B5400668354305601579EC
:1015F000012D02D01579022D16D185684F000326E2
:10160000BE40B543856055794E00B5408668354388
:101610008560456801268E40B543456045689679EA
:101620008E40B6B235434560C5684F000326BE40C4
:10163000B543C560D5794E00B540C6683543C56031
:10164000491C1029BFD3F0BDF0B5002300244D077D
:10165000ED0E02FA05F3CE1000F1200555F82650E4
:101660004E07F70E0F26BE40B543CF1000F12006FF
:1016700046F82750CE1000F1200555F8265045EACF
:101680000304CE1000F1200545F82640F0BD00BF50
:10169000FEE700001FB50121084600F093FC012180
:1016A000042000F08FFC0121102000F08BFC0C20A6
:1016B000029001208DF80C0000208DF80E008DF8AE
:1016C0000F0003208DF80D0002A92148FFF774FFD9
:1016D0004FF4C050029000208DF80C0003208DF8CC
:1016E0000D0001208DF80F0002A91A48FFF764FFD2
:1016F0001020029001208DF80F0002A91448FFF776
:101700005BFF8020029001208DF80F0002A9124893
:10171000FFF752FF0121880300F084FC0B21002019
:1017200000F05AFE4FF40060009000208DF8040095
:101730000C208DF8050001208DF806006846FFF7A3
:1017400037FD002005490860054908601FBD0000FD
:10175000001002400000024000080240880242429D
:10176000440000200548007880F00100034908701B
:101770000846007802490860704700002F000020EA
:10178000A00240421CB50121084600F01BFC4FF4AA
:101790008070009001208DF8040000208DF8060074
:1017A00003208DF8050001208DF8070069460348E5
:1017B000FFF702FF0020024908701CBD0000024034
:1017C0002F00002000B597B00121084600F0FAFB79
:1017D0000121102000F026FC072209214B48FFF7C9
:1017E00033FF07220A214948FFF72EFF4FF4C0605C
:1017F000159002208DF8580003208DF85900002024
:101800008DF85A0001208DF85B0015A93F48FFF7BD
:10181000D3FE3F4811900020ADF84800ADF84A00D3
:10182000ADF84C00ADF850000C20ADF84E0011A9F9
:10183000384801F04DF80121364800F0FCFF252022
:101840008DF8040003208DF8050001208DF80600B6
:101850008DF8070001A800F0F3F840212D4800F0B2
:10186000E1FF0121880500F0ADFB2B48FFF71CFBD1
:1018700000BF2948FFF7C4FB0028FAD14FF00060F1
:1018800002902448001D03902448049040200590B5
:101890000020069007904FF4806008900020099087
:1018A0000A900B904FF440300C9000200D900320D4
:1018B0000E9000200F90109002A91748FFF7EEFB42
:1018C00001228021134800F0C2FF0122102112489A
:1018D000FFF7C6FB46208DF8040000208DF80500B8
:1018E00003208DF8060001208DF8070001A800F004
:1018F000A7F800200A4908700A4908700A490870C8
:101900000A4908700A49087017B000BD000002407B
:1019100080841E0000100140B864024034020020A0
:101920003A0000203E0000203D0000203B00002047
:101930003F0000202DE9F04106460C46002726B165
:10194000224631461E48FEF741FD1E4800781C49DC
:101950008870002504E01A48405D4740681CC5B205
:10196000A542F8DB1648075516480078401C154973
:1019700008701548FFF74EFB38B11348FFF74AFBD4
:101980008046414611A0FEF779FC00BF0E48FFF7E4
:1019900041FB0028FAD100210B48FFF779FA00BF7C
:1019A0000948FFF72DFB0028FAD1611C0648FFF714
:1019B000A1FB01210448FFF76BFABDE8F0810000AC
:1019C000340200203A000020B8640240646D6120B7
:1019D00025640D0A000000001FB50121202000F041
:1019E00011FB0920029042F2CF00ADF80400002064
:1019F000ADF80C00ADF8060001A90E4800F098FE05
:101A0000012211460B4800F041FE0121094800F077
:101A100020FE37208DF8000001208DF80100022003
:101A20008DF8020001208DF80300684600F008F8E8
:101A30001FBD00000014004000BFFEE7704700001B
:101A400070B5002100230F22C4781CB3174C246802
:101A500004F4E064C4F5E064C4F30721C1F10404B4
:101A6000E3B20A4144789C40E1B2847814402143B7
:101A70000C07210E0E4C05786155047804F01F0503
:101A80000124AC4005786D11AD0005F1E025C5F8E5
:101A9000004109E0047804F01F050124AC40054D25
:101AA0000678761145F8264070BD00000CED00E088
:101AB00000E400E080E100E070B504460120114937
:101AC000086044EA0410C4B23F2300227F2110467C
:101AD00001F0B6F801200C49C1F8980200250AE08F
:101AE000002604E0204600F09FF9701CC6B2402E8C
:101AF000F8DB681CC5B2802DF2DB002001490860CC
:101B000070BD000084024242000040422DE9FE4FB9
:101B10008046894615461C462046E11704EB517164
:101B2000C1F3C701009108EB0500401E4006030EFB
:101B30004FEA680209EB0400401EC1B2484601F0BA
:101B40007FF80195019D05FB04F080B20190012012
:101B50001D490860002632E04FF0000A2AE0B34633
:101B600000980BFB00A01FFA80FB07271CE0002059
:101B700002900C9810F80B000121B940084008B100
:101B8000F020029000980BEB00010C98405C0121C2
:101B9000B940084018B1029840F00F000290029836
:101BA00000F042F9781E47B2002FE0DA0AF1010096
:101BB00000F0FF0A00988245D1DBB01CC6B2AE42ED
:101BC000CADBBDE8FE8F00009802404210B500203D
:101BD000054908608D2000F027F9142000F024F951
:101BE000AF2000F021F910BD980240422DE9F041EC
:101BF00004460D4616461F463B46324629462046B9
:101C000000F028F980464FFA88F22946204600F075
:101C100089F8BDE8F081000000B587B001210846D1
:101C200000F0D0F90121042000F0CCF901210803D3
:101C300000F0F8F9A020059002208DF8180000208F
:101C40008DF81A0003208DF8190001208DF81B0073
:101C500005A92F48FFF7B0FC5020059001208DF812
:101C6000180000208DF81A0001208DF81B000320B9
:101C70008DF8190005A92648FFF79EFC1020059055
:101C800005A92448FFF798FC052211462048FFF7D4
:101C9000DBFC052207211E48FFF7D6FC01210803C3
:101CA00000F0D0F900214FF4805000F0CBF94FF450
:101CB0004040ADF800004FF48270ADF80200002003
:101CC000ADF80400ADF80600ADF808004FF4007060
:101CD000ADF80A000820ADF80C000020ADF80E00A9
:101CE0000720ADF8100069460B4800F055FB0121B4
:101CF000094800F037FB4FF4B0710848FEF7ABFB22
:101D00002A210748FEF7A7FB00F0D8F807B000BD6E
:101D1000000002400008024000300140340500206D
:101D2000940600202DE9F05F04460D4692460120FE
:101D3000A8401FFA80FB04EB0A0C0CEB4C0CACF136
:101D4000010C0CF0FF0304EB440C0CF0FF024FF00D
:101D5000070C0CEBC50C0CF0FF014FEAC56C4FEA09
:101D60001C6000F06DFF01202B49086000264FE049
:101D7000002749E04FF0000841E04FF0000905EB73
:101D8000450000EBC500254901EB40003119405CDE
:101D900000EB4000224901EB4000C05D012101FA47
:101DA00008F1084008B14FF0F00905EB450000EBE1
:101DB000C5001A4901EB40003119405C00EB4000BE
:101DC000174901EB4001781C085C012101FA08F178
:101DD000084008B149F00F093019124931F81000D4
:101DE00000EA0B0020B189F0FF0000F01DF802E0CE
:101DF000484600F019F808F101004FFA80F8B8F1F0
:101E0000080FBADBB81C47B2062FB3DB701C46B212
:101E10005645ADDBBDE8F09F9802404234050020F6
:101E2000183500089406002010B504460020074924
:101E300008602146064800F0ADFA00BF02210448C0
:101E400000F09CFA0028F9D010BD0000900240423A
:101E500000300140F0B50446002027E0155C203D2D
:101E600001EB410606EBC106124F07EB46062718A9
:101E7000F5555BB12518104E36F8155001268E40E9
:101E8000354326180C4F27F816500DE025180A4E3A
:101E900036F8156001258D404FF6FF777D402E40C6
:101EA0002518054F27F81560451CE8B2155C002D74
:101EB000D4D1F0BD340500209406002010B50120D7
:101EC0003C490860642000F0ABFD00203A49C1F8AD
:101ED0009002642000F0A4FD0120364908606420CF
:101EE00000F09EFD00203549C1F89802AE20FFF7B2
:101EF0009BFFA020FFF798FF4620FFF795FFA1204A
:101F0000FFF792FF0020FFF78FFFA220FFF78CFF63
:101F10000020FFF789FFA420FFF786FFA820FFF726
:101F200083FF7F20FFF780FFAB20FFF77DFF0120BD
:101F3000FFF77AFF8120FFF777FF7720FFF774FF25
:101F4000B120FFF771FF3120FFF76EFFB320FFF7DD
:101F50006BFFB120FFF768FFB420FFF765FFB520E6
:101F6000FFF762FF0320FFF75FFFB620FFF75CFF7C
:101F70000D20FFF759FFBC20FFF756FF0720FFF7A2
:101F800053FFBE20FFF750FF0720FFF74DFFD5207E
:101F9000FFF74AFF0220FFF747FFAF20FFF744FF9C
:101FA000B520FFF741FF0320FFF73EFFFFF70EFECE
:101FB00010BD00009002414200004142000040423A
:101FC0007047000029B1064A12680243044B1A60A8
:101FD00004E0034A12688243014B1A607047000014
:101FE0003038024029B1064A12680243044B1A6095
:101FF00004E0034A12688243014B1A6070470000F4
:102000003838024029B1064A12680243044B1A606C
:1020100004E0034A12688243014B1A6070470000D3
:102020004038024029B1064A12680243044B1A6044
:1020300004E0034A12688243014B1A6070470000B3
:102040004438024029B1064A12680243044B1A6020
:1020500004E0034A12688243014B1A607047000093
:1020600024380240F0B50021002200240225002679
:102070000223324F3F6807F00C0121B1042905D03B
:10208000082937D105E02E4F076036E02D4F076055
:1020900033E02A4F3F1F3F68C7F38056274F3F1F4B
:1020A0003F6807F03F036EB1264FB7FBF3F7DFF849
:1020B0008CC0ACF1040CDCF800C0CCF3881C07FB2E
:1020C0000CF40CE01E4FB7FBF3F7DFF870C0ACF177
:1020D000040CDCF800C0CCF3881C07FB0CF4174F91
:1020E0003F1F3F68C7F301477F1C7D00B4FBF5F736
:1020F000076002E0124F076000BF00BF0F4F3F684C
:1021000007F0F0010909104F7A5C0768D740476073
:102110000A4F3F6807F4E051890A0B4F7A5C476821
:10212000D7408760054F3F6807F46041490B064F71
:102130007A5C4768D740C760F0BD000008380240AD
:102140000024F40000127A001500002081B241F052
:102150008001044A126802F0800262EA0101014A29
:10216000116070470C28004010B501460020002285
:10217000054B1B68054C03EA040202EA01030BB19C
:10218000012000E0002010BD0C2800407F7F0100EE
:1021900010B54FF48060FFF7E7FF012805D18002FA
:1021A000FFF7D4FF0020034908804FF48000FEF7BA
:1021B000EDFF10BD380000200149086070470000A5
:1021C000382C014001460020034A12680A400AB137
:1021D000012000E000207047342C014010B500F0D1
:1021E00017F810BD0021094B02681A601A1D11680A
:1021F0006FF30A01D0E901231A43C3681A43036944
:102200001A431143014A121D11607047082C014006
:1022100010B54FF48070FFF7D5FF78B34C480078C5
:10222000012814D100204B4908600C204860402050
:1022300088600020C8604FF4806008610846FFF79E
:10224000D1FF0C20FEF7A2FD4349087002E00020F8
:10225000414908704148006840F480703F49086077
:10226000081D00684CF23A3188433C49091D08605A
:1022700001203B4908703848007810BDFFE7022074
:10228000FFF7A0FF78B10220FFF796FF3348001D4B
:1022900000684CF23A3188433049091D0860022039
:1022A0002D490870E9E70820FFF78CFF78B1082076
:1022B000FFF782FF2948001D00684CF23A3188433D
:1022C0002649091D0860042023490870D5E720200D
:1022D000FFF778FF78B12020FFF76EFF1F48001D41
:1022E00000684CF23A3188431C49091D08600620F9
:1022F00019490870C1E71020FFF764FF78B110207A
:10230000FFF75AFF1548001D00684CF23A31884328
:102310001249091D086005200F490870ADE74FF408
:102320000070FFF74FFF80B14FF40070FFF744FFDC
:102330000A48001D00684CF23A3188430749091DDC
:10234000086007200449087097E7002095E700001F
:1023500051000020D806002052000020382C0140F7
:102360005300002021B1028842F04002028004E0C4
:1023700002884FF6BF731A40028070470246002061
:1023800013890B400BB1012000E00020704701468B
:10239000888970478181704710B50022028802F455
:1023A00041520B884C8823438C882343CC88234399
:1023B0000C8923434C8923438C892343CC892343B1
:1023C0001A430280838B4FF2FF74234083830B8A6E
:1023D000038210BD7047000030B500228B071C0F30
:1023E0000F2303FA04F20B4B8C1053F82430934361
:1023F000084C8D1044F8253023468C1053F82430B7
:102400008C07240F00FA04F42343024C8D1044F887
:10241000253030BD083801400CB5002001900090F7
:102420003448006840F480303249086000BF3148C9
:10243000006800F4003000900198401C0190009862
:1024400018B90198B0F5A04FF1D12A48006800F4FE
:10245000003010B10120009001E0002000900098B1
:10246000012846D123484030006840F0805021497F
:10247000403108602048006840F440401E49086030
:102480001C48083000681B4908310860084600688D
:1024900040F4004008600846006840F4A05008601E
:1024A0001648091F0860081F006840F08070091F67
:1024B000086000BF0F48006800F000700028F9D0E5
:1024C00040F205700E4908600A480830006820F0A4
:1024D00003000849083108600846006840F002001F
:1024E000086000BF03480830006800F00C000828AE
:1024F000F8D10CBD0038024000700040085440077D
:10250000003C0240042808D14FF0E021096941F065
:1025100004014FF0E022116107E04FF0E02109696A
:1025200021F004014FF0E022116170477047000074
:1025300010B51548006840F470001349086013484E
:10254000006840F001001149086000200F4908317F
:1025500008600E4800680E4908400C4908600D48A4
:10256000091D0860081F006820F48020091F08600A
:10257000002006490C310860FFF74EFF4FF0006065
:1025800001498039086010BD88ED00E00038024044
:10259000FFFFF6FE1030002410B50121054800F0C1
:1025A00064F828B10121034800F050F8FEF710FB51
:1025B00010BD00000004004010B50121194800F0D2
:1025C00054F868B30121174800F040F8032406E0EE
:1025D000154830F81400401C134921F81400201E3F
:1025E000A4F10101CCB2F3D110480088401C0F497E
:1025F00008800846008842F21071884202DD0020FF
:102600000A4908800A480088401C09490880084691
:102610000088B0F57A7F02DB40F2E730088000BF27
:1026200010BD000000140040000000200600002043
:102630003800002021B1028842F08002028004E0CC
:1026400002884FF67F731A4002807047CA430282A5
:10265000704721B1028842F00102028004E0028842
:102660004FF6FE731A400280704730B502460020D4
:1026700000230024158A05EA0103958905EA01046F
:1026800013B10CB1012000E0002030BD1AB18389E4
:102690000B43838102E083898B4383817047000071
:1026A00070B5002400220023058C4FF6FE763540DD
:1026B0000584028C8388048B4FF68F752C40B51EE1
:1026C0002C400D882C43751E2A408D892A434D8845
:1026D0002A43104DA84202D00F4DA84213D14FF605
:1026E000F7752A40CD892A434FF6FB752A408D881D
:1026F0002A434FF6FF652B404FF6FF552B400D8ABE
:102700002B434D8A2B43838004838D684563028469
:1027100070BD000000000140000401400A46002195
:10272000018B4FF6F7731940114301837047000086
:1027300000220288184B98420ED0184B98420BD0BA
:10274000B0F1804F08D0164B984205D0154B9842F7
:1027500002D0154B984204D14FF68F731A404B8824
:102760001A43124B984207D0114B984204D04FF6AF
:10277000FF431A400B891A4302804B68C3620B88DF
:102780000385054B984202D0044B984201D18B7AC5
:10279000038601238382704700000140000401404A
:1027A0000004004000080040000C00400010004001
:1027B0000014004070B51548007880F001052146EE
:1027C00013A0FDF75BFD0821134800F049F848B15C
:1027D000114800F0E7F808210F4800F023F80FA097
:1027E000FDF74CFD40F225510B4800F046F860B172
:1027F000094800F0D7F8C4B2214605A0FDF73EFD18
:10280000AC2C02D101200649087070BD3D000020AB
:1028100072782025780D0A00001001406F72650063
:102820003F00002001F40072B2F5007F00D100BF2C
:10283000CA430280704721B1828942F400528281EA
:1028400004E082894DF6FF731A40828170471AB105
:10285000838A0B43838202E0838A8B43838270479F
:1028600002460020B1F5007F00D100BF13880B4065
:102870000BB1012000E00020704770B50246002433
:1028800000230025002040F66A16B14200D100BFA7
:10289000C1F3421501F01F03012606FA03F3012DCF
:1028A00002D19689334006E0022D02D1168A3340C8
:1028B00001E0968A33400C12012606FA04F41688C9
:1028C000344013B10CB1012000E0002070BD0000C5
:1028D0002DE9FF4705460E460024A14600BFA0464D
:1028E000B08900B100BF2C8A24F44054F08804431E
:1028F0002C82AC8941F20C608443B0883189084352
:10290000718908430443AC81AC8A24F44074B089D3
:102910000443AC826846FFF7A5FB2048854202D0FD
:102920001F48854202D1DDF80C9001E0DDF80890E7
:10293000A88900F4004040B109EBC90000EB091080
:1029400031684900B0FBF1F707E009EBC90000EB83
:10295000091031688900B0FBF1F76420B7FBF0F093
:1029600004012009642101FB1078A88900F40040CB
:1029700040B1322000EBC800B0FBF1F000F00700DE
:10298000044308E0322000EB08106421B0FBF1F0B2
:1029900000F00F0004432C81BDE8FF8700100140C8
:1029A0000014014001468888C0F30800704700BF4A
:1029B000FEE700000748006828B107480068401E8D
:1029C0000549086004E004480068401C02490860AA
:1029D000704700003002404244000020014600BF22
:1029E0007047000010B504466FF00400FFF78AFD41
:1029F000E11704EB5171C1F3C701074A117010468A
:102A0000007800EB4001C1EBC0104FF6FF7101EA06
:102A1000C0000249088010BD580000205A00002064
:102A200070B504464FF4077094FBF0F0C6B24FF453
:102A3000077094FBF0F100FB114085B205E04FF404
:102A4000077000F009F8701EC6B2002EF7D115B15C
:102A5000284600F001F870BD0146114A12884A4329
:102A60004FF0E0235A6100229A611A46126942F03F
:102A700001021A6100BF4FF0E022106900F001026C
:102A80001AB100F48032002AF5D04FF0E02212692A
:102A900022F001024FF0E0231A6100229A61704790
:102AA0005A00002000BF054A128802F04002002AA6
:102AB000F9D0C2B2014B1B1D1A8070470044004080
:102AC0001CB501211020FFF77DFA032000900120A2
:102AD0008DF8040000208DF8060003208DF8050015
:102AE00001208DF8070069460448FEF765FD0020C7
:102AF000034908600349C1F884021CBD001002406C
:102B000080024242000042421FB5A820FFF76AFF40
:102B10004FF4E13000F0B4F8FFF77EF8FEF75CFF09
:102B2000FEF730FEFFF7CCFFFEF74CFEFDF75EFF31
:102B3000FDF7CAFDFEF7AEFDFC202A4981F828000A
:102B400029484178274880F82910012180F82B1066
:102B50000021C16225A0FDF791FB0020FEF7ACFF2C
:102B6000002326A219461846FFF740F8002329A2A1
:102B700004210520FFF73AF8FEF764FB28A207CAF4
:102B800001AB07C301202949086001AA0A210020DE
:102B9000FEF728FC01AA0A210020FEF7B9FB002459
:102BA00006E001A8015D22A0FDF768FB601C04B2ED
:102BB0000A2CF6DB1FA0FDF761FB1F4880231A4695
:102BC000002100900846FEF7A1FF09E01B4800889D
:102BD000B0F5FA7F04DB002018490880FEF7C2FD3B
:102BE000F4E7000060000020163500084E69636BB2
:102BF000656C426972640D0A000000003D3D3D2095
:102C0000204E69636B656C4269726420203D3D3DD6
:102C1000000000004C6F6164696E672E2E2E00006C
:102C20000102030405060708090A00008002424267
:102C3000256420000D0A0000162D00080000002069
:102C40002DE9F04107460C4615461E4600200B496B
:102C500008601520FFF7E8F82846FFF7E5F830464A
:102C6000FFF7E2F87520FFF7DFF83846FFF7DCF8EA
:102C70002046FFF7D9F8BDE8F081000098024042F5
:102C800010B586B0044601210846FFF79BF90121E3
:102C90004804FFF7B7F9072202211A48FEF7D4FCCF
:102CA000072203211748FEF7CFFC0C2004900220D6
:102CB0008DF8140003208DF8150000208DF8160003
:102CC00001208DF8170004A90E48FEF775FC00944A
:102CD0000020ADF80400ADF80600ADF80800ADF82E
:102CE0000C000C20ADF80A0069460748FFF7F0FD1C
:102CF00001210548FFF79FFD40210348FFF792FDA2
:102D000006B010BD00000240004400404FF040708B
:102D1000E1EE100A70470000000000000000000013
:102D200000000000000000000000000000000000A3
:102D30000000000000000000000000000000000093
:102D40000000000000000000000000000000000083
:102D50000000000000000000000000000000000073
:102D60000000000000000000000000000000000063
:102D70000000000000000000000000000000000053
:102D80000000000000000000000000000000000043
:102D900000000000000000900000000000000000A3
:102DA00000000000000000580000000000000000CB
:102DB00000000000000000480000000000000000CB
:102DC000000000000000004C0000000000000000B7
:102DD000000000000000066D000000000000000080
:102DE000000000000000036E8000000000000000F2
:102DF00000000000000003B680000000000000009A
:102E0000000000000000009FE00000000000000043
:102E100000000000000000DFF000000000000000E3
:102E2000000000000000007FF00000000000000033
:102E3000000000000000007FF8000000000000001B
:102E4000000000000000067FFC0000000000000001
:102E500000000000000003BFFE00000000000000B2
:102E6000000000000000019FFE00000000000000C4
:102E7000000000000000006FFF8000000000000064
:102E80000000000000000077FFC00000000000000C
:102E9000000000000000003FFFF000000000000004
:102EA000000000000000001FFFF000000000000014
:102EB000000000000000000FFFF000000000000014
:102EC0000000000000000007FFF800000000000004
:102ED0000000000000000003FFFC000000000000F4
:102EE0000000000000000000FFFF80000000000064
:102EF0000000000000000000FFFFC0000000000014
:102F00000000000000000000FFFFE00000000000E3
:102F100000000000000000007FFFF0000000000043
:102F200000000000000000007FFFF800000000002B
:102F300000000000000000003FFFFC000000000057
:102F400000000000000000001FFFFE00000600005F
:102F5000000000007FC000000FFFFFC000078000DE
:102F6000000000002000000007FFFFF00007C00085
:102F7000000000001000000007FFFFF80007E0005D
:102F8000000000000C00000003FFFFFC0007E00051
:102F9000000000000200000001FFFFFF0007F0003A
:102FA000000000000100000001FFFFFF800FF000A3
:102FB0000000000000C0000000FFFFFFE00FFC0069
:102FC000000000007FC00000007FFFFFF80FFE0040
:102FD0000000000000000000003FFFFFFE0FFF00A8
:102FE000000000009FC00000001FFFFFFF0FFF0058
:102FF0000000000000000000000FFFFFFF1FFF00A7
:1030000000000000000000000007FFFFFF9FFF001E
:10301000000000000F8000000003FFFFFF9FFF0083
:103020000000000018C000000003FFFFFFDFFF00EA
:1030300000000000104000000000FFFFFFFFFF80C5
:10304000000000001040000000003FFFFFFFFF8075
:10305000000000000880000000000FFFFFFFFF00DD
:103060000000000000000000000007FFFFFFFE005E
:1030700000000000FFC00000000001FFFFFFFC0097
:103080000000000002000000000000FFFFFFF00051
:1030900000000000070000000000003FFFFFF000FC
:1030A00000000000188000000000000FFFFFE0009B
:1030B000000000000040000000000007FFFFE000EB
:1030C000000000000000000000000001FFFFE00021
:1030D000000000000F80000000000000FFFFE00083
:1030E0000000000012400000000000007FFFFC0014
:1030F0000000000012400000000000003FFFFE0042
:103100000000000012400000000000001FFFFF0050
:10311000000000000E800000000000000FFFFF0014
:1031200000000000000000000000000007FFFF801A
:1031300000000000000000000000000003FFFF800E
:1031400000000000FFC000000000000003FFFF803F
:1031500000000000000000000000000001FFFFC0B0
:1031600000000000000000000000000001FFFFE080
:1031700000000000000000000000000001FFFFE070
:1031800000000000000000000000000000FFFFF849
:10319000000000000000000000000000007FFFF8B9
:1031A000000000000000000000000000003FFFF8E9
:1031B000000000007FC0000000000000003BFFFC9A
:1031C0000000000044400000000000000003FFFC7D
:1031D0000000000044400000000000000001FFFE6D
:1031E0000000000044400000000000000000FFFE5E
:1031F000000000003A4000000000000000007FFFD7
:1032000000000000038000000000000000007FFFBD
:1032100080000000000000000000000000007FFFB0
:10322000C00000009FC000000000000000007FFF01
:10323000C0000000000000000000000000003FFF90
:10324000E0000000000000000000000000003FFF60
:10325000F00000001FC000000000000000001FFF81
:10326000FC000000080000000000000000000FFF4C
:10327000FC0000001000000000000000000007FF3C
:10328000FC0000000000000000000000000007FF3C
:10329000FC0000000F80000000000000000003FFA1
:1032A000FE00000018C0000000000000000003FF46
:1032B000FF8000001040000000000000000001FF3F
:1032C000FFC000001040000000000000000001FFEF
:1032D000FFE000001880000000000000000000FF78
:1032E000FFF80000FFC0000000000000000000FF29
:1032F000FFF8000000000000000000000000007F58
:10330000FFFC000000000000000000000000003F83
:10331000FFFE000000000000000000000000001F91
:10332000FFFF000000000000000000000000000F90
:10333000FFFF800000000000000000000000000708
:10334000FFFFC000000000000000000000000001BE
:10335000FFFFF0000000000000000000000000017E
:10336000FFFFF0000000000000000000000000006F
:103370007FFFFC00000000000000000000000000D3
:103380003FFFFC0000000000000000000000000003
:103390001FFFFC0000000000000000000000000013
:1033A0000FFFFF0000000000000000000000000010
:1033B00003FFFFC00000000000000000000000004C
:1033C00001FFFF00000000000000000000000000FE
:1033D000007FFFE00000000000000000000000008F
:1033E000003FFFF0000000000000000000000000AF
:1033F000000FFC780000000000000000000000004A
:103400000007FF8000000000000000000000000036
:103410000007FFE0000000000000000000000000C6
:103420000003FFF0000000000000000000000000AA
:103430000000679C00000000000000000000000089
:10344000000031E00000000000000000000000006B
:10345000000030E00000000000000000000000005C
:10346000000010300000000000000000000000001C
:103470000000081000000000000000000000000034
:103480000000080000000000000000000000000034
:10349000000000000000000000000000000000002C
:1034A000000000000000000000000000000000001C
:1034B000000000000000000000000000000000000C
:1034C00000000000000000000000000000000000FC
:1034D00000000000000000000000000000000000EC
:1034E00000000000000000000000000000000000DC
:1034F00000000000000000000000000000000000CC
:1035000000000000000000000000000000000000BB
:103510000000000000000028000000000000000083
:10352000002F000000000700070000147F147F1424
:1035300000242A7F2A1200626408132300364955AA
:10354000225000000503000000001C224100000082
:1035500041221C000014083E08140008083E080818
:10356000000000A060000008080808080000606073
:103570000000002010080402003E5149453E0000B2
:10358000427F4000004261514946002141454B3194
:10359000001814127F10002745454539003C4A4960
:1035A00049300001710905030036494949360006D2
:1035B0004949291E0000363600000000563600003A
:1035C00000081422410000141414141400004122B5
:1035D000140800020151090600324959513E007C8D
:1035E0001211127C007F49494936003E4141412277
:1035F000007F4141221C007F49494941007F090960
:103600000901003E4149497A007F0808087F00000F
:10361000417F4100002040413F01007F08142241CA
:10362000007F40404040007F020C027F007F040882
:10363000107F003E4141413E007F09090906003EDE
:103640004151215E007F0919294600464949493107
:103650000001017F0101003F4040403F001F20402A
:10366000201F003F4038403F0063140814630007E8
:103670000870080700615149454300007F4141003F
:1036800000552A552A55000041417F0000040201DF
:1036900002040040404040400000010204000020BD
:1036A00054545478007F48444438003844444420FB
:1036B00000384444487F00385454541800087E09A8
:1036C00001020018A4A4A47C007F08040478000070
:1036D000447D4000004080847D00007F102844002D
:1036E0000000417F4000007C04180478007C08043E
:1036F000047800384444443800FC2424241800187A
:10370000242418FC007C0804040800485454542065
:1037100000043F444020003C4040207C001C2040EE
:10372000201C003C4030403C004428102844001C31
:10373000A0A0A07C004464544C44000000FF0000A2
:10374000000000FF0000000000FF0000141414142B
:10375000141430313233343536373839414243442A
:1037600045464030580030313233343536373839F9
:103770006162636465664030780000009C37000831
:103780000000002060000000C4010008FC370008B1
:1037900060000020800F0000E00100080000000031
:1037A0000000000000000000000000000000000019
:1037B00000000000000102030401020304060708E0
:1037C00009000000000000000000000000000000F0
:1037D00000000000000000000000000000000000E9
:1037E00000000000000000000000000001000000D8
:0C37F000000000000000000000000000CD
:040000050800018965
:00000001FF
