:020000040800F2
:10000000880B00204D020008FD3000083B28000846
:10001000F93000083D1F00088F3E00080000000076
:100020000000000000000000000000007B35000818
:100030006D2300080000000079310008E138000855
:1000400067020008670200086702000869330008B9
:1000500067020008670200086702000867020008DC
:1000600041240008670200086702000867020008D0
:1000700067020008670200086702000867020008BC
:1000800067020008670200086702000867020008AC
:10009000670200086702000867020008670200089C
:1000A000670200086702000867020008670200088C
:1000B000670200084D39000867020008670200085F
:1000C000670200086702000867020008670200086C
:1000D00067020008953C00086702000867020008F4
:1000E0007123000867020008670200086702000821
:1000F000670200086702000867020008670200083C
:10010000670200086702000867020008670200082B
:1001100067020008670200086702000885390008C6
:10012000670200086702000867020008670200080B
:1001300067020008670200086702000867020008FB
:1001400067020008670200086702000867020008EB
:10015000670200086702000899200008670200088B
:1001600067020008670200086702000867020008CB
:1001700067020008670200086702000867020008BB
:10018000670200086702000800F002F800F04FF86C
:100190000AA090E8000C82448344AAF10107DA45E2
:1001A00001D100F044F8AFF2090EBAE80F0013F0E5
:1001B000010F18BFFB1A43F0010318472451000038
:1001C00044510000103A24BF78C878C1FAD85207C9
:1001D00024BF30C830C144BF04680C6070470000C1
:1001E0000023002400250026103A28BF78C1FBD840
:1001F000520728BF30C148BF0B607047662904F022
:10020000FE87642900F08480782900F0BD800020FA
:1002100070471FB504F0E9FF00F0E2FB0400002086
:10022000002104F0E3F9E0601FBD10B510BD00F03F
:10023000F7FC1146FFF7EDFF04F0C8F800F015FDDC
:1002400003B4FFF7F2FF03BC04F010F8094880473D
:1002500009480047FEE7FEE7FEE7FEE7FEE7FEE7A8
:10026000FEE7FEE7FEE7FEE704480549054A064BC0
:1002700070470000E5380008890100088805002063
:10028000880B0020880700208807002070470000A6
:100290000FB4044910B503AA029800F05DFB10BC2E
:1002A0005DF814FB940000202DE9F0410E46044651
:1002B000002020622046E168884730B3252805D019
:1002C000D4E901219047206A401CF2E7E16820460A
:1002D00000278847050018D0A5F14100192802D849
:1002E00020354FF400673246294620462760FFF745
:1002F00085FF40B1012804D0F61D26F00706083618
:10030000D8E7361DD6E72846DAE7206ABDE8F0814F
:100310002DE9F0410646002410687529314616A5DE
:1003200010D0AFF30080002802DA404213A507E0A6
:1003300031688A0701D512A502E0490704D511A545
:10034000012401E0AFF3008000210A2206F1240716
:1003500009E0B0FBF2FCB0FBF2F302FB1C00303012
:1003600078541846491C0028F3D123462A463046C3
:10037000BDE8F04100F088B8000000002D0000004A
:100380002B0000002000000070B504460D462146F9
:100390001068AFF300802188090502D50F4A7A441E
:1003A00002E00E4A7A440E32002104F1240305E0F3
:1003B00000F00F060009965D5E54491C0028F7D135
:1003C00020780023000704D5702D02D009B1022344
:1003D00011322046BDE8704000F056B8624E000071
:1003E000032A40F2308010F0030C00F0158011F861
:1003F000013BBCF1020F624498BF11F801CB00F839
:10040000013B38BF11F8013BA2F1040298BF00F88C
:1004100001CB38BF00F8013B11F0030300F0AE82BE
:10042000083AC0F0088051F8043B083A51F804CB70
:10043000A0E80810F5E7121D5CBF51F8043B40F836
:10044000043BAFF30080D20724BF11F8013B11F841
:1004500001CB48BF11F8012B24BF00F8013B00F885
:1004600001CB48BF00F8012B7047704770477047B9
:10047000704710B500F0B8FA006810BD10B504461A
:1004800000F0B2FA046010BD2DE9F0470D46994620
:100490009246044600F124080168880604D5E06904
:1004A00021F01001216000E00120A84201DD471B7E
:1004B00000E00027A1697A1902EB0900081AA0617F
:1004C0002078C00602D42046AFF30080002608E062
:1004D000D4E901211AF806009047206A401C761CD6
:1004E00020624E45F4DB2078C0060AD52046AFF3E3
:1004F000008006E0D4E9012130209047206A401CAA
:100500002062381EA7F10107F4DC07E0D4E90121DD
:1005100018F805009047206A401C2062281EA5F1AB
:100520000105F3DC2046AFF300802078000602D5F9
:100530000220BDE8F0870120FBE770472DE9FF4F5F
:100540000C461E464FF0FF378BB0D2E90001DDF8B4
:1005500060800A908A46C1F30A5505B93D460021DC
:1005600008464FF00000BAF1000F00F4400005DA31
:1005700000EB80004FF4400101EA50004FEA90592F
:10058000B9F1010F00DDB9460A9850EA4A000ED0D1
:1005900044F61050A5F2FF3545432F14B8F1000F73
:1005A0001ED07542291E1EDDC9F100021CE0B8F103
:1005B000010F4FF0000001D0302103E0F24305E0CD
:1005C0002154401CB042FBDB304600220021215464
:1005D0000B99C1F80880C1E900200FB0BDE8F08F89
:1005E000BD1B6D1CDEE74A4600DA694206A800F032
:1005F0009DFA06AB93E8070003AB83E8070050467B
:100600000A9900F07BFB8DE80700A0F500501F3829
:1006100000900398002D0ADD42F21F014A4608446B
:10062000002303A90390684600F0E4FD09E0A0F56B
:1006300000504A461F38002303A90390684600F083
:10064000EEFD8DE807000004000C03D04FF0FF30F2
:10065000410800E01046B8F1000F03D000220092DC
:1006600015461EE0751E05D400F0C2F93032625501
:100670006D1EF9D5B3460122084302D000227F1C2B
:1006800004E02078302801D100227F1E002A09973B
:1006900084D01DE0112D07DA00F0AAF9303262553E
:1006A0006D1C50EA0102F5D1084302D00098C8B190
:1006B0000EE00021681E05E0235C625C6354225456
:1006C000401E491C8142F7DBAB46A81B401E099027
:1006D000002004F80B000B98099AC0F80880C0E9C4
:1006E000002B7AE711264FF0000857E72DE9F04F6D
:1006F00088460446D21D22F0070191B0D1E90001DD
:10070000CDE90A0103F0C5FB02460B98C00F01D0EA
:100710002D2007E02068810701D52B2002E0202151
:1007200001EAC000032A099001D0072A05DB03462D
:100730004146204600F0BAF90BE12078800601D549
:10074000E06900E00620B8F1650F814606D0B8F1F7
:10075000660F18D0B8F1670F70D131E00020B9F101
:10076000110F009001DB112301E009F101030AAA36
:1007700001A90CA8FFF7E2FEDDE90C70002609F1E3
:100780000105834647E001204B4600904FF00047AB
:100790000AAA01A90CA8FFF7D1FEDDE90DB00C995A
:1007A0005D46002610B909F101000D18B9EB0500EE
:1007B00003D4C0F1FF3609F10105A5EB09002BE0D8
:1007C000B9F1010F01DA4FF001090020B9F1110F61
:1007D0000090484601DD112300E003460AAA01A962
:1007E0000CA8FFF7ABFEDDE90C704D4600268346F2
:1007F000207800070AD4AB4500DA5D4601A8012D38
:1008000004DD411911F8011C302907D04F4502DAE7
:1008100017F1040F04DA012082460FE06D1EEEE7A7
:10082000002F02DCED1B3E4403E0781CA84200DDF3
:100830007D1CB81B00F1010A4FF00047207800072B
:1008400003D4AA4501DB4FF0FF3A0021B7F1004F76
:100850000DF143088DF8431024D002202B23002FE4
:1008600001DA7F422D230A21021EA0F1010000DCE3
:100870005FB197FBF1FC97FBF1F201FB1C7C174683
:100880000CF1300C08F801CDEEE7A8F1010003707F
:100890002188090501D5452100E06521A0F1010865
:1008A00000F8011C09980FA9A1EB0807FF1D00B172
:1008B0000120411901EBEA70A1693844081A401E71
:1008C000A0612078C00602D42046AFF300800998CA
:1008D00028B1D4E901219047206A401C2062207889
:1008E000C00622D52046AFF300801EE0002E04DBB8
:1008F000B34502DD01A8805D00E03020D4E901218C
:100900009047206A401C2062761CAAF101005FEA31
:10091000000A0AD100F064F8C0680168405CD4E9BC
:1009200001219047206A401C2062281EA5F1010584
:10093000DCDC07E0D4E9012118F8010B9047206ABC
:10094000401C2062381EA7F10107F3DC2046AFF3FC
:100950000080032011B041E6074B70B50D467B4483
:1009600000F091F80446284600F052F910B14FF01B
:10097000FF3070BD204670BD433A000010B5203AEC
:10098000C0F00B80B1E81850203AA0E81850B1E848
:100990001850A0E81850BFF4F5AF5FEA027C24BFFE
:1009A000B1E81850A0E8185044BF18C918C0BDE8F5
:1009B00010405FEA827C24BF51F8043B40F8043BBE
:1009C00008BF7047D20728BF31F8023B48BF11F873
:1009D000012B28BF20F8023B48BF00F8012B7047CD
:1009E000004870474805002000487047280500204F
:1009F00030B5B0F10A024FEA900E71F100034EEAF1
:100A0000817EB0EB0E0061EB91014FEA101E4EEAC1
:100A1000017E10EB0E0041EB11114FEA102E4EEA51
:100A2000016E10EB0E0041EB11214FEA104E4EEA21
:100A3000014E10EB0E0041EB1141401841F1000155
:100A40004FEAD00040EA41704FEAD10110EB800537
:100A50004FEA810444EA907444EB01046D1944EBBD
:100A60000404521BA3414FF0000348BF0A3200D5D3
:100A700030BD401C41F1000130BD000001694A1C3D
:100A800002610878704700B58FB0CDE901310021CF
:100A9000059105497944CDE9031011466846FFF7F1
:100AA00003FC0FB000BD0000E5FFFFFF2DE9F041A2
:100AB0001F46044603260168072A01F4006004DB90
:100AC00008B116A505E016A503E008B115A500E0DC
:100AD00015A521F010002060A069C01EA0610FB113
:100AE000401EA0612046AFF300804FB1D4E9012140
:100AF00038469047206A401C2062C01C206206E0F5
:100B0000206AFAE7D4E9012115F8010B9047761E17
:100B1000F8D22046AFF30080BDE8F0814E414E0090
:100B20006E616E00494E4600696E66002DE9F04721
:100B3000814616468AB0354878440DC88DE80D00C8
:100B400032487844801C03AC0DC884E80D0041F69F
:100B50009B300844372190FBF1F290FBF1F5A5F1B1
:100B6000800501FB12041B3C02D56442012000E019
:100B70000020DFF898A080460027FA44AAF1BE0AB8
:100B80000EE0E0070AD03246684607EB4701012332
:100B90000AEB810100F043FB8DE8070064107F1C25
:100BA000002CEED1194F7F44AE3F19E0E80715D075
:100BB00007EB04100DF1180A90E80E008AE80E0009
:100BC000C068F04201D1981908903246012306A965
:100BD00003A800F024FB03AB83E807006D10641C3E
:100BE000002DE3D14FF0010332466946B8F1000F02
:100BF00003A802D000F0FEFA01E000F010FBC9E902
:100C00000001C9F808200AB0BDE8F0878C47000051
:100C1000007B00F0800070470048704728050020E6
:100C20007546FFF7F9FFAE4605006946534620F0CA
:100C30000700854618B020B5FFF716FBBDE8204039
:100C40004FF000064FF000074FF000084FF0000B88
:100C500021F00701AC46ACE8C009ACE8C009ACE83B
:100C6000C009ACE8C0098D46704710B50446AFF323
:100C700000802046BDE81040FFF7E2BA4FF0013C8B
:100C800050F8042B51F8043B9A4221D1A2EB0C03FB
:100C9000934313EACC1317D150F8042B51F8043BBB
:100CA0009A4215D1A2EB0C03934313EACC130BD158
:100CB00050F8042B51F8043B9A4209D1A2EB0C03E3
:100CC000934313EACC13DBD04FF00000704700BF12
:100CD000D01A01BAB1FA81F101F0180122FA01F03B
:100CE000CB40C1F12001DBB2C0B2C01A2CFA01F333
:100CF000D11A914311EAC311E6D170475FEA400C63
:100D000008BF91F0000F4FEA8C234FEAC12243EA5B
:100D100051514FEA1C5018BF00F5F0404FEA300027
:100D200018BF41F000415FEA6C5C00F02980BCF123
:100D3000FF3F08BF40F080407047130C06BF12040D
:100D40004FF0100C4FF0000C130E04BF12020CF108
:100D5000080C130F04BF12010CF1040C930F04BF15
:100D600092000CF1020CD30F04BF52000CF1010CE5
:100D700011464FF00002A0F11F00A0EB0C007047DD
:100D800011F0004F08BF704731F000413FF4D5AF7C
:100D90000B0C06BF09044FF0100C4FF0000C0B0EAB
:100DA00004BF09020CF1080C0B0F04BF09010CF180
:100DB000040C8B0F04BF89000CF1020CCB0F04BF95
:100DC00049000CF1010CCCF12003A0EB0C0022FA3D
:100DD00003F302FA0CF241EA030100F1010070474B
:100DE00020F07F4C80EA030023F07F47ACEB070341
:100DF00003F57C5300F0004003F1FF032DE9804927
:100E00004FEA154B09B44FEA144325EA0B4E24EA86
:100E100003480FF2042606EB132749083E785FEAE1
:100E2000320203FB0667C7F5000707FB06F64FEA29
:100E300054374FEAD64606F1020607FB066CCCF1A2
:100E4000005C4FEA1C472CEA074C07FB06F40CFB3E
:100E500006F504EB15464FEA961634BF00204FF016
:100E600000404FEAD13706FB07FC4FEA1C4C0CFB55
:100E70000BF7D21B03FB0CF761EB07010CFB0EF722
:100E8000B0EB074072EB17420CFB08F734BFA2EB44
:100E90000742B2EB074261EB17414FEA0C444FEABD
:100EA000910706FB07FC4FEA1C4C0CFB0BF7B0EB61
:100EB000C74072EB573203FB0CF734BFA2EBC742BB
:100EC000B2EBC74261EB57310CFB0EF7B0EBC7003A
:100ED00072EB57720CFB08F734BFA2EBC702B2EB00
:100EE000C70261EB5771039F4FEA816141EA92119A
:100EF00004EBCC044FEAD1374FEA826206FB07FCD1
:100F000042EA90124FEA80604FEA1C4C0CFB0BF750
:100F1000D21B03FB0CF761EB07010CFB0EF7B0EBE8
:100F2000074072EB17420CFB08F734BFA2EB0742F5
:100F3000B2EB074261EB17414FEA8C554FEA91073C
:100F400004EB9C2406FB07FC4FEA1C4C0CFB0BF744
:100F5000B0EBC74072EB573203FB0CF734BFA2EB88
:100F6000C742B2EBC74261EB57310CFB0EF7B0EB57
:100F7000C70072EB57720CFB08F734BFA2EBC70235
:100F8000B2EBC70261EB577115EB4C254FEA81615B
:100F900041EA92114FEA82624FEAD13742EA901257
:100FA00006FB07FC44F100044FEA80604FEA1C4C4A
:100FB0000CFB0BF7D21B03FB0CF761EB07010CFBDF
:100FC0000EF7B0EB074072EB17420CFB08F734BF8B
:100FD000A2EB0742B2EB074261EB174115EB1C1580
:100FE0004FEA813141EA92414FEA823242EA90422D
:100FF0004FEA80304FEA0C7644F1000448EA03439C
:101000004EEA0B484FF0000EB2EB080C71EB0307F1
:1010100024BF624639464EEB0E0E4FF0000B00180F
:10102000524149414BEB0B0BB2EB080C71EB030740
:101030007BF1000B24BF624639464EEB0E0E4FF09B
:10104000000B0018524149414BEB0B0BB2EB080C63
:1010500071EB03077BF1000B24BF624639464EEB70
:101060000E0E51EA020718BF46F0010616EB0E7687
:1010700055F1000254F1000103D5BDE88901BDE836
:101080000088BDE88901BDE80048B619524141EB2E
:101090000101A3F10103704780807F7E7D7C7B7A14
:1010A0007978777676757473727171706F6E6E6D14
:1010B0006C6C6B6A6A6968686766666564646363BA
:1010C00062616160605F5F5E5E5D5D5C5C5B5B5A40
:1010D0005A595958585757565655555554545353AD
:1010E00052525251515050504F4F4F4E4E4D4D4D08
:1010F0004C4C4C4B4B4B4A4A4A4949494848484753
:101100004747474646464545454444444443434390
:101110004342424242414141002B9C4630D4770039
:101120002BD01CB54FEA370703B44FF010004FF037
:101130001001BAF1000F06D0BCF1000FDCBF40F087
:10114000080040F008014FF000000FBCBDE810405F
:101150000BF1010BBBF1010F08BF5FEA170722BFBC
:1011600012F1010211F101014FF0004143F10003BE
:1011700000F0004043EA00007047F9D35708D0E779
:1011800046EA064613F1400F4FEA16461FDD13F1FB
:10119000200FDFBF16430A46002120335B42BED03A
:1011A000C3F1200746EA064602FA07F74FEA164659
:1011B00046EA0706C3F1200722FA03F201FA07F70D
:1011C00021FA03F14FF0000342EA0702A7E746EADB
:1011D000020646EA06464FEA164646EA0106BCBF44
:1011E00046EA0646360C4FF000034FF000024FF07F
:1011F000000194E72DE9804C9A46934670B491E83B
:10120000380007C831EA400C48BF34EA430C03D524
:10121000FFF7E6FDFFF780FFF0BCBDE8008C2DE98D
:10122000804C9A46934670B491E8380007C810F095
:10123000804F08BF13F0804F03D100F005F8FFF78F
:101240006BFFF0BCBDE8008C20F07F4780EA030014
:1012500023F07F4C07EB0C03A3F57C5300F0004018
:10126000A3F1FE0392F0000F00F0B38095F0000FA1
:1012700000F077802DE901494FEA11404FEA14460A
:1012800021EA004800FB06FC24EA064708FB06F6B4
:1012900007FB08F800FB07F718EB06484CEB164C69
:1012A0004FEA124B18EB07484FEA15464CEB174034
:1012B00022EA0B4E0BFB06FC25EA06470EFB06F660
:1012C00007FB0EFE0BFB07F71EEB064E4CEB164C16
:1012D0004FF000061EEB074E4CEB174B18EB0B08BC
:1012E00040F1000018EB0E0B58EB000840F1000035
:1012F0008F1A4FF000013CBFC943661B14BFB5EB0A
:10130000040C00213CBFC943F61B4FEA17444EEAC8
:101310008E0E27EA04454FEA1C4704FB07622CEABD
:10132000074C05FB07F70CFB05F604FB0CFC16EB62
:10133000074642EB174216EB0C4642EB1C421BEBF6
:10134000060658EB0202414146EA9E0601D5BDE879
:101350000189B619524141EB0101A3F10103BDE836
:1013600001894FEA14454FEA114724EA054621EA6C
:10137000074C05FB07F406FB07F70CFB06F105FB22
:101380000CFC11EB074144EB17444FEA124711EBF9
:101390000C4144EB1C4422EA074C05FB07F206FB18
:1013A00007F70CFB06F605FB0CFC16EB074642EBB9
:1013B000174216EB0C4642EB1C456A1854F100012B
:1013C00048BF7047B619524141EB0101A3F1010337
:1013D000704795F0000F37D04FEA11424FEA14479B
:1013E00021EA024624EA074C02FB07F106FB07F755
:1013F0000CFB06F402FB0CFC14EB074441EB174119
:101400004FEA154714EB0C4441EB1C4125EA074C0D
:1014100002FB07F506FB07F70CFB06F602FB0CFCCC
:1014200016EB074645EB174516EB0C4645EB1C4201
:10143000121951F1000148BF7047B619524141EBF2
:101440000101A3F1010370474FEA14454FEA114728
:1014500024EA054621EA074C05FB07F106FB07F7DE
:101460000CFB06F24FF0000605FB0CFC12EB0742EA
:1014700041EB174112EB0C4251EB1C4148BF704746
:10148000921841EB0101A3F10103704700B5A3B02D
:101490000121022001F072FE0121042001F06EFE04
:1014A0000121082001F06AFE0121102001F066FEF2
:1014B0000121202001F062FE02220021A14801F05A
:1014C00099F90120219002208DF8880000208DF8E4
:1014D0008A0003208DF8890000208DF88B0021A957
:1014E000984801F03FF901208DF8880040032190D1
:1014F00021A9954801F036F94FF40060219021A907
:10150000924801F02FF90420219000208DF88800E6
:1015100021A98C4801F026F901208D49086001219C
:10152000084601F03BFE0C2200218A4801F062F9D6
:101530000C220121874801F05DF90C220421854825
:1015400001F058F90C220521824801F053F90C22D0
:101550000821804801F04EF90C2209217D4801F054
:1015600049F90C220A217B4801F044F90C220E2192
:10157000784801F03FF90C220F21764801F03AF942
:101580004CF23370219002208DF8880003208DF8F2
:10159000890000208DF88A008DF88B0021A96D4804
:1015A00001F0E0F80C2204216B4801F023F90C2231
:1015B0000521694801F01EF90C220721664801F057
:1015C00019F90C220821644801F014F90C220921B0
:1015D000614801F00FF90C220A215F4801F00AF975
:1015E0000C220B215C4801F005F90C2211465A48E7
:1015F00001F000F90C220D21574801F0FBF80C22F4
:101600000E21554801F0F6F80C220F21524801F046
:10161000F1F84FF6B070219021A94F4801F0A2F8DF
:1016200003200B9000200C9006200D9001200E90BE
:1016300000200F901090119006201290002013901F
:101640001490102015900020169017901890199063
:101650001A904FF480501B9000201C901D901E90FB
:101660000BA81F90209012A800F0EAFF012106208D
:1016700000F0CCFF00F0A2F80121022001F09EFD55
:101680005320099040F2E730ADF820000020ADF87B
:101690002800ADF8220008A9304802F0B9FA60200D
:1016A000ADF80C000120ADF80E0005900220ADF859
:1016B000180003A9294802F051FA0821274802F02E
:1016C0009DFA0121254802F013FA1D208DF808002B
:1016D00001208DF809008DF80A008DF80B0002A892
:1016E00001F00EFD012211461C4802F02DFA0121E5
:1016F0001A4802F00CFA0121880301F07FFD022153
:10170000012001F03BFF0420009000208DF8040030
:101710000C208DF8050001208DF80600684600F0C9
:10172000D9FE08208DF8080001208DF80B0000205C
:101730008DF809008DF80A0002A801F0E1FC23B041
:1017400000BD0000000402400008024000140240F6
:10175000B4024142000C024000100240000400406C
:101760000021134A11601349098809B20180114907
:10177000098809B241800F49098809B281800D4961
:10178000098809B2C1800B49098809B20181094958
:10179000098809B241810749098809B2818105494F
:1017A000098809B2C1810121034AC2F8B412704705
:1017B000B40241420000406C000041420020074951
:1017C000086001200649C1F8AC02044908600860BD
:1017D000086000200249C1F8AC027047AC82424266
:1017E0000080424200B58DB00121042001F0C6FC0A
:1017F0000121080201F002FD06200B9003208DF864
:10180000300000208DF8330003208DF831000BA943
:10181000154800F0A7FF0121080201F0FFFC00219C
:101820004FF4807001F0FAFC002007900A900990B4
:101830004FF48030089007A800F05CF80020019079
:101840008DF808008DF809000390059001208DF8AF
:10185000180001A9054800F073F80121034800F0C1
:101860003EF80DB000BD000000080240002001401D
:101870002DE9F0410646002428E004F10B00C1B236
:1018800003230122134800F085F80025002715E006
:101890000221104800F020F80E4800F0D7F800BFF1
:1018A00002210C4800F042F80028F9D0094800F065
:1018B00039F8C0F30B000544781CC7B2102FE7DBE2
:1018C0002D0928B226F81400601CC4B2022CD4DB07
:1018D000BDE8F08100200140CA430260704721B199
:1018E000826842F00102826003E0826822F0010215
:1018F000826070470021084A1168084A1140D0E907
:1019000000231A4383681A43C3681A431143044AE5
:10191000C2F804137047000004230140E030FCFFCC
:10192000002001400146C86C80B27047024600208A
:1019300013680B400BB1012000E00020704700004D
:1019400030B50246002000235068104C20400D792D
:101950000C6844EA05242043506090680C4C2040F9
:10196000D1E903542C438D682C434D7944EA450456
:1019700020439060D06A20F470000C7D641EE4B2B5
:10198000234340EA0350D06230BD0000FFFEFFFC5D
:10199000FDF7FFC0F0B504460D4600200021092DDB
:1019A00011DDE068A5F10A0606EB4607072606FAF0
:1019B00007F18843A5F10A0606EB460603FA06F18D
:1019C0000843E0600CE0206905EB4507072606FAAE
:1019D00007F1884305EB450603FA06F10843206149
:1019E000072A0FDA606B561E06EB86071F2606FADB
:1019F00007F18843561E06EB860605FA06F10843F2
:101A0000606322E00D2A0FDA206BD61F06EB8607F3
:101A10001F2606FA07F18843D61F06EB860605FA4D
:101A200006F10843206310E0E06AA2F10D0606EB20
:101A300086071F2606FA07F18843A2F10D0606EB7A
:101A4000860605FA06F10843E062F0BD816841F0C0
:101A5000804181607047000010B5024801F012FD1E
:101A600010BD0000003C00402DE9F04105460E4647
:101A70001746002407F00300044306F0070044EA79
:101A8000800405F0070044EA40140020064908607D
:101A9000742002F0F7FB204602F0F4FB012003491A
:101AA000C1F89802BDE8F081980243420000434229
:101AB0001CB50121402001F061FB40200090012075
:101AC0008DF8040000208DF8060003208DF8050035
:101AD00001208DF8070069460B4800F043FE002006
:101AE0000A490860012002F011FC01200849C1F8F0
:101AF000980201F04DFC00F07FF803220121084616
:101B0000FFF7B2FF1CBD00000018024098024342DC
:101B10000000434230B52DED108B83B004469FED9D
:101B2000300AB0EE408A002549E000F0AFF9F0EE4F
:101B3000408A00F015F9B0EE40FA1FEE100A03F0EB
:101B4000E3FA41EC1C0B9FED270A38EE800A10EEF9
:101B5000101A084603F0D8FA41EC1E0B53EC1E2B6A
:101B60009FED210B51EC100B02F03CFE41EC1D0BE4
:101B700053EC1C2B02F0DEFF41EC1B0B9FED1C0B0A
:101B800053EC102B02F02EFE41EC190B18EE100A4C
:101B900003F0BAFA41EC1A0B53EC192B02F06EFD6C
:101BA000CDE900019DED000B51EC100B02F034FD6E
:101BB00008EE100A052002F08DFB681CC5B2A54294
:101BC000B3DB00EE104AB8EE400AC8EE000AB0EEF1
:101BD000608AB0EE480A03B0BDEC108B30BD000047
:101BE0000000000000808843E7FBA9F1D20F764097
:101BF00000000000D0BCF84070B5002048490860E3
:101C0000882002F03FFB02F035FB044602F032FB75
:101C100005462A46214643A0FEF73AFB44EA052042
:101C20004249088002F026FB044602F023FB0546E9
:101C300044EA052000B23E49088002F01BFB04463E
:101C400002F018FB054644EA052000B23949088035
:101C500002F010FB044602F00DFB054644EA0520A5
:101C60003549088002F006FB044602F003FB0546F6
:101C700044EA052000B23149088002F0FBFA04462C
:101C800002F0F8FA054644EA052000B22C49088023
:101C900002F0F0FA044602F0EDFA054644EA0520A7
:101CA00000B22849088002F0E5FA044602F0E2FAA0
:101CB000054644EA052000B22349088002F0DAFA1A
:101CC000044602F0D7FA054644EA052000B21F494F
:101CD000088002F0CFFA044602F0CCFA054644EA46
:101CE000052000B21A49088002F0C4FA044602F046
:101CF000C1FA054644EA052000B21649088002F000
:101D0000B9FA044602F0B6FA054644EA052000B2E4
:101D10001149088001201149C1F8980270BD0000E6
:101D20009802434225782025780D0A005C000020A7
:101D30005E0000206000002062000020640000209F
:101D400066000020680000206A0000206C0000206F
:101D50006E0000207000002072000020000043424E
:101D60002DE9F04100203C490860F72002F08AFA92
:101D700002F080FA804646EA0806360202F07AFA55
:101D8000804646EA0806360102F074FA804646EAC2
:101D9000281601203149C1F89802314800684FF4F3
:101DA0007A41C1EB6004A0104043C0122D49B1F943
:101DB000001000FB01F72C48B0F90000604307EB6E
:101DC0004007B8102949098800EB0147A01040439B
:101DD00040132749B1F900104843C1102548B0F914
:101DE0000000604301EB6000841404F500402249C8
:101DF00009884843C4131CB99FED200ABDE8F0814F
:101E0000C6F58010A0EB273040F6354100FB01F508
:101E1000B5F1004F03D26800B0FBF4F502E0B5FB6A
:101E2000F4F04500E8084043400B1549B1F90010B3
:101E300048430413A8081349B1F900104843471355
:101E4000E0191149B1F90010084405EB201500EE26
:101E5000105AB8EE400AD1E79802434200004342CC
:101E6000740000206C0000206A0000206800002040
:101E700066000020640000206200002000000000D6
:101E800072000020700000206E0000202DE9F04755
:101E90002DED028B0024002021490860FA2002F079
:101EA000F1F902F0E7F907463C43240202F0E2F9B7
:101EB000804644EA0804240102F0DCF9814644EA41
:101EC000291401201749C1F89802E0101649098821
:101ED000A0EB41001549B1F900104843C512124862
:101EE0000088C0EB2410404300131149B1F90010E1
:101EF00048438613A8190F4908600846006800EB9C
:101F000080008030001208EE100AF8EEC80A9FED3B
:101F10000A1A80EE810ABDEC028BBDE8F087000052
:101F200098024342000043425C0000205E00002013
:101F300060000020740000200000C84200BFFEE7DF
:101F400000B587B00121084601F018F9302005904E
:101F500003208DF8180002208DF81B0005A91448F5
:101F600000F000FC0121480701F028F90020019051
:101F7000029003900220049001A9002000F052F882
:101F800001A9102000F04EF80121002000F036F8E1
:101F90000121102000F032F89FED060A012000F028
:101FA0000BF89FED040A022000F006F807B000BD10
:101FB000000002400000000070B52DED028B0446C9
:101FC000B0EE408A4FF4805500EE105AB8EE400A49
:101FD00020EE080ABCEEC00A10EE100A85B2012CF1
:101FE00003D12946002000F037F8022C03D12946FE
:101FF000002000F041F8BDEC028B70BD39B1084AF9
:102000001268012383401A43054B1A6006E0044A14
:102010001268012383409A43014B1A607047000005
:102020000074004030B5002200230A4C226840F6BC
:10203000FE748440A243D1E900452C438D682C43B3
:10204000CD6844EA050303FA00F42243014C226000
:1020500030BD00000074004008B500220092054A1F
:10206000009200F10802009B1A440092009A11604D
:1020700008BD00000074004008B500220092054A27
:10208000009200F11402009B1A440092009A116021
:1020900008BD00000074004010B50B490B4800F06B
:1020A000F7F801280ED14FF00451084800F0F0F87D
:1020B00020B14FF00451054800F00AF802490348E6
:1020C00000F006F810BD000000800028B86402404F
:1020D0000246094B9A4201D2084801E006481038EE
:1020E00001F000531BB1064B0B40C36002E0044BF0
:1020F0000B408360704700001064024000600240A3
:102100007D0F7D0F21B1026842F00102026003E001
:10211000026822F00102026070470000016821F0AD
:10212000010101600021016041608160C1600161C5
:10213000212141614A49884204D13D21484A103A4F
:1021400091608CE046491831884205D14FF47461A2
:10215000434A103A916082E041493031884205D1CA
:102160004FF474113E4A103A916078E03C4948318E
:10217000884205D14FF07461394A103A91606EE09F
:1021800037496031884204D13649354A103AD16026
:1021900065E033497831884204D13349304A103AF6
:1021A000D1605CE02E499031884204D12F492C4AFD
:1021B000103AD16053E02A49A831884205D14FF046
:1021C0003D51274A103AD16049E02949884204D15B
:1021D0003D21274A083A116041E0254918318842DB
:1021E00005D14FF47461224A083A116037E0204962
:1021F0003031884205D14FF474111D4A083A1160FC
:102200002DE01B494831884205D14FF07461184ACE
:10221000083A116023E016496031884204D111491F
:10222000134A121F11601AE011497831884204D113
:102230000D490F4A121F116011E00D49903188427B
:1022400004D10A490A4A121F116008E00849A8315E
:10225000884204D14FF03D51054A121F116070476A
:10226000106002403D000020400F002000003D2093
:1022700010640240014600200A6802F001020AB11F
:10228000012000E0002070470146486880B2704796
:1022900030B503460A46002000240B4DAB4201D264
:1022A0000A4901E00849103902F000550DB14C68A7
:1022B00000E00C68064D2C4004EA02050DB1012037
:1022C00000E0002030BD00001064024000600240C9
:1022D0007D0F7D0F10B501F080034BB122B1436932
:1022E00043F08003436103E0436923F080034361CB
:1022F00080290BD02AB1036801F01E042343036038
:1023000004E0036801F01E04A343036010BD000055
:1023100010B500220268134B1A40CC680B682343A7
:102320004C6923438C692343CC6923430C6A2343C0
:102330004C6A23438C6A23434C6B23438C6B2343AB
:102340001A430260426922F00702D1E90B342343A9
:102350001A4342610B6943604B6883608B68C360BA
:1023600010BD00003F801CF04160704770470000C6
:1023700010B52DED048B4FF4805000F09FF830B372
:1023800001202A4981F87C000846C06A2849086073
:1023900028490968264A1268501A02F07BFB41EC72
:1023A000190B53EC192B9FED240B51EC100B02F081
:1023B00019FA41EC180B02F02FF91C4948671C4828
:1023C00000681C4908604FF4805000F071F84FF429
:1023D000005000F073F828B30121144880F87D10F4
:1023E000C06A1349086013494968114A1268501AB3
:1023F00002F050FB41EC190B53EC192B9FED0E0B27
:1024000051EC100B02F0EEF941EC180B02F004F95C
:102410000649886706480068064948604FF400503E
:1024200000F046F8BDEC048B10BD000098000020C1
:10243000840000207C0000200000000000408F404D
:1024400010B5042000F03AF860B31748FFF788F998
:102450002C211548083800F055FC1348303890F905
:102460007E0000280ADB9FED110A0F48303890F9F2
:102470007E10443000EB810080ED000A0A483038BD
:1024800090F97F0000280ADB9FED080A06483038E3
:1024900090F97F10443000EB810080ED000A0420A9
:1024A00000F006F810BD0000C80000200000000089
:1024B0000149086070470000143C014001460020BB
:1024C000034A12680A400AB1012000E00020704768
:1024D000143C0140002123498279002A3AD00A465F
:1024E000126803689A430B461A600A1D1268036853
:1024F0009A430B1D1A60027911440A6803681A4353
:102500000A60184A0832126803689A43154B083368
:102510001A601A1D126803689A43124B0C331A6032
:102520004279102A0ED11A1F126803681A430D4B04
:1025300008331A601A1D126803681A43094B0C33DA
:102540001A600DE00749427911440A6803681A438A
:102550000A6005E0027911440A6803689A430A6038
:1025600070470000003C014000B585B00121022009
:1025700000F004FE4FF44050039000208DF810004E
:102580008DF8120001208DF8130003208DF8110042
:1025900003A91C4800F0E6F80121880300F02EFE94
:1025A0000C21012000F0EAFF0D21012000F0E6FFE0
:1025B0004FF40050019000208DF808000C208DF899
:1025C000090001208DF80A0001A8FFF783FF4FF4EE
:1025D0008050019001A8FFF77DFF28208DF80000B2
:1025E00001208DF803008DF8010003208DF8020012
:1025F000684600F085FD002003490860486005B08A
:1026000000BD0000000402407C00002051B18200A7
:10261000A2F1C042126842F001038200A2F1C0425E
:10262000136009E08200A2F1C0421268034B1A4015
:102630008300A3F1C0431A6070470000FEFF0F0043
:1026400030B50021002200230468A400A4F1C04496
:102650002168424C2140D0E901452C43C5682C43F8
:1026600005692C4345692C4385692C43C5692C4376
:10267000056A2C43456A2C43856A2C43C56A2C4362
:10268000056B2C4321430468A400A4F1C0442160DD
:102690008468082C0BD10468A400A4F1C044246809
:1026A00044F040050468A400A4F1C0442560046817
:1026B000641CA400A4F1C044226802F04042446BB0
:1026C0002468456B6D6844EA0514456BAD6844EABF
:1026D0000524456BAD8944EA0544456B2D8A44EADF
:1026E0000554456B2D7D44EA0564456BAD692C436B
:1026F00022430468641CA400A4F1C0442260C46A9C
:10270000B4F5804F20D10468A400A4F1C044D4F8EB
:102710000431134C2340846B2468856B6D6844EA54
:102720000514856BAD6844EA0524856BAD8944EAE0
:102730000544856BAD692C4323430468A400A4F1D0
:10274000C044C4F8043107E06FF070450468A40089
:10275000A4F1C044C4F8045130BD00008000F7FF6C
:102760000000F0CFF0B50A4600210023002400BF8E
:102770003DE0012505FA01F3156805EA03049C42D2
:1027800034D105684F000326BE40B5430560157976
:102790004E00B5400668354305601579012D02D01D
:1027A0001579022D16D185684F000326BE40B5432A
:1027B000856055794E00B54086683543856045682B
:1027C00001268E40B5434560456896798E40B6B285
:1027D00035434560C5684F000326BE40B543C5601C
:1027E000D5794E00B540C6683543C560491C1029EF
:1027F000BFD3F0BDF0B5002300244D07ED0E02FA63
:1028000005F3CE1000F1200555F826504E07F70EBF
:102810000F26BE40B543CF1000F1200646F82750E2
:10282000CE1000F1200555F8265045EA0304CE10DD
:1028300000F1200545F82640F0BD00BFFEE700008E
:1028400010B50020124908601248006820F440408A
:10285000104908600846006840F480400860012084
:1028600001F054FD00200C49C1F89C0201F0A8FDC4
:1028700001200749086001F0A3FD00200649C1F8C6
:10288000980201F09DFD01200149091D086010BD5D
:102890009882404200040240008040421CB5012161
:1028A000022000F06BFCC020009001208DF8040095
:1028B0008DF8060003208DF8050001208DF8070033
:1028C00069460548FFF74EFF0120044908600449A6
:1028D000C1F89C021CBD00000004024098824042E6
:1028E0000080404210B50020104908601048006880
:1028F00020F440400E4908600846006840F48040DB
:102900000860012001F002FD01200A49C1F89C0283
:1029100001F056FD01200549086001F051FD00203D
:102920000449C1F8980201F04BFD10BD9882404265
:10293000000402400080404270B51348006820F453
:10294000404011490860084600680860012001F015
:10295000DDFC0024002513E06006040E01200B4975
:10296000086001F02DFD0A48D0F81C0208B144F0BF
:10297000010400200549086001F022FD681CC5B271
:10298000082DE9DB204670BD0004024098824042D9
:102990000080404270B504461948006820F4404069
:1029A000174908600846006840F48040086001202C
:1029B00001F0ACFC002520E004F0800018B10120FB
:1029C0001049086002E000200E49086001F0F8FCA0
:1029D00001200C49091F086001F0F2FC00200A499F
:1029E000C1F89802072D02D101200649086060064F
:1029F000040E01F0E5FC681CC5B2082DDCDB70BDDF
:102A0000000402409C8240420080404210B51148C0
:102A1000006820F440400F4908600846006840F410
:102A200080400860012001F071FC01200A49086023
:102A30000A49C1F8980201F0C3FC00200649086069
:102A400001F0BEFC00200549C1F8980201F0B8FC75
:102A500010BD0000000402409C82404200804042C1
:102A600010B50D48006820F440400B490860084646
:102A7000006840F480400860012001F047FC00201D
:102A80000649086001200649C1F8980201F098FC47
:102A900001200249086010BD000402409C824042AF
:102AA0000080404270B51748006820F44040154946
:102AB0000860084600680860012001F027FC01203A
:102AC0001149086001F07CFC01201049C1F898020E
:102AD00001F076FC0024002505E0601CC4B2FA2C4D
:102AE00001DD012504E00848803800680028F4D1A1
:102AF00000BF00200449091F086001F061FC28465E
:102B000070BD0000000402409C82404200804042B0
:102B10000548007880F001000349087008460078F5
:102B200002490860704700002C000020A482424245
:102B30001CB50121202000F021FB4FF40070009013
:102B400001208DF8040000208DF8060003208DF888
:102B5000050001208DF8070069460348FFF702FED3
:102B60000020024908701CBD001402402C00002007
:102B700018B10021054A117002E00121034A1170C9
:102B800002490978024A1160704700002C000020B9
:102B9000A482424200B597B00121084600F0EEFA47
:102BA0000121102000F02AFB072209214C48FFF7E1
:102BB00021FE07220A214A48FFF71CFE4FF4C0609D
:102BC000159002208DF8580003208DF85900002040
:102BD0008DF85A0001208DF85B0015A94048FFF7D9
:102BE000C1FD4FF4612011900020ADF84800ADF810
:102BF0004A00ADF84C00ADF850000C20ADF84E0086
:102C000011A9384801F0D4F80121364801F083F8C1
:102C100025208DF8040003208DF8050001208DF893
:102C200006008DF8070001A800F06AFA40212D483F
:102C300001F068F80121880500F0A0FA2A48FFF7A2
:102C40006DFA00BF2848FFF715FB0028FAD14FF0B6
:102C5000006002902348001D039024480490402007
:102C600005900020069007904FF4806008900020A7
:102C700009900A900B904FF480300C9000200D903A
:102C800003200E9000200F90109002A91648FFF725
:102C90003FFB01228021134801F049F80122102155
:102CA0001148FFF717FB46208DF8040000208DF82F
:102CB000050003208DF8060001208DF8070001A80B
:102CC00000F01EFA00200A4908700A4908700A49F3
:102CD00008700A4908700A49087017B000BD000062
:102CE0000000024000100140B864024028020020A9
:102CF000380000203C0000203B000020390000206C
:102D00003D0000202DE9F04106460C46002726B183
:102D1000224631461E48FDF763FB1E4800781C49D9
:102D20008870002504E01A48405D4740681CC5B221
:102D3000A542F8DB1648075516480078401C15498F
:102D400008701548FFF7A0FA38B11348FFF79CFA4E
:102D50008046414611A0FDF79BFA00BF0E48FFF7E1
:102D600093FA0028FAD100210B48FFF7CBF900BFF6
:102D70000948FFF77FFA0028FAD1611C0648FFF7DF
:102D8000F3FA01210448FFF7BDF9BDE8F081000026
:102D90002802002038000020B8640240646D6120E1
:102DA00025640D0A0000000030B52DED028B81B0C6
:102DB00004469FED1B0A1B4880ED000A002514E025
:102DC00068469FED170A00F077F8164890ED000A64
:102DD0001548D0ED000A30EE200A124880ED000AB6
:102DE0000A2001F077FA681CC5B2A542E8DB0D485D
:102DF000D0ED000A00EE104AB8EE400A80EE801ACC
:102E000080ED001A006802F07FF941EC180B53ECDA
:102E1000182B06A0FDF73CFA01B0BDEC028B30BDCB
:102E200000000000400000204400002025660D0A3C
:102E3000000000001CB50121402000F09FF9802017
:102E4000009001208DF8040000208DF8060003207A
:102E50008DF8050000208DF8070069460E48FFF741
:102E600081FC01200D49086000F092FA9FED0C0AE8
:102E70000C4880ED000A9FED0A0A0B4880ED000A1D
:102E800000200A4908609FED060A094880ED000A03
:102E90000A20084908601CBD001802409C024342F9
:102EA0000000000040000020480000204C000020EE
:102EB00050000020540000202DE9F04F2DED0C8B28
:102EC00081B0B0EE409A0546002000905F4908604E
:102ED0005F4800F0CBFAFEF7BFFD8046FEF7BCFD71
:102EE0008246FEF7B9FD06463746FEF7B5FD834636
:102EF00001205849C1F89C0208F03F044FF6FF70CA
:102F000000EA042444EA0A04F80040EA6B17C820E7
:102F100017FB00F000EE100AF8EEC00A9FED4E1A03
:102F200080EE810ADFED4D0A30EE600AF0EE409A45
:102F3000204601F0AFFD9FED4A0B53EC102B01F042
:102F4000F9FF9FED490B53EC102B01F04BFC9FED6B
:102F5000480B53EC102B01F0EDFF01F05DFB08EE88
:102F6000100A19EE100A02F0CFF89FED430B53EC54
:102F7000102B01F0DDFE06D2414890ED000A38EE3C
:102F8000400AB0EE408A3F4880ED008AB5EEC08A24
:102F9000F1EE10FA07D2BFEE000A28EE000AB0EEFA
:102FA000408A0120009018EE100A02F0ADF841ECC2
:102FB0001B0B9FED350B53EC102B01F0BBFD41ECCF
:102FC0001A0B01F029FB08EE100AB5EEC09AF1EEDB
:102FD00010FA03D1B7EE020AB0EE409AB0EE000A42
:102FE00028EE000AC0EE090A10EE909A484602F058
:102FF0008BF841EC1B0BB0EE4B0AF0EE6B0A01F0C4
:103000003BF8B0EE40AAF0EE60AA51EC1A0B01F0CA
:1030100003FB08EE900A009818B1B1EE680AF0EED2
:10302000408A1B4890ED000A30EE280A80ED000A25
:1030300018480068401C1749086085ED008AB0EE0A
:10304000680A01B0BDEC0C8BBDE8F08F9C024342D6
:10305000003C00400000434200E0FF4400004842C2
:103060003333333333999940343333333399B9405D
:10307000000000000000F03F9A9999999999B93F92
:1030800040000020440000201283C0CAC1EEBA40B4
:10309000500000204C0000201FB50121202000F02E
:1030A0008DF80920029042F2CF00ADF80400002014
:1030B000ADF80C00ADF8060001A90E4800F0A8FD1F
:1030C000012211460B4800F03FFD0121094800F0A4
:1030D0001EFD37208DF8000001208DF80100022030
:1030E0008DF8020001208DF80300684600F008F812
:1030F0001FBD00000014004000BFFEE77047000045
:1031000070B5002100230F22C4781CB3174C24682B
:1031100004F4E064C4F5E064C4F30721C1F10404DD
:10312000E3B20A4144789C40E1B2847814402143E0
:103130000C07210E0E4C05786155047804F01F052C
:103140000124AC4005786D11AD0005F1E025C5F80E
:10315000004109E0047804F01F050124AC40054D4E
:103160000678761145F8264070BD00000CED00E0B1
:1031700000E400E080E100E07047000029B1064A69
:1031800012680243044B1A6004E0034A1268824347
:10319000014B1A60704700003038024029B1064ADE
:1031A00012680243044B1A6004E0034A1268824327
:1031B000014B1A60704700003838024029B1064AB6
:1031C00012680243044B1A6004E0034A1268824307
:1031D000014B1A60704700004038024029B1064A8E
:1031E00012680243044B1A6004E0034A12688243E7
:1031F000014B1A60704700002038024029B1064A8E
:1032000012680243044B1A6004E0034A12688243C6
:10321000014B1A60704700004438024029B1064A49
:1032200012680243044B1A6004E0034A12688243A6
:10323000014B1A607047000024380240F0B50021AD
:1032400000220024022500260223324F3F6807F0A7
:103250000C0121B1042905D0082937D105E02E4FF2
:10326000076036E02D4F076033E02A4F3F1F3F686D
:10327000C7F38056274F3F1F3F6807F03F036EB1EB
:10328000264FB7FBF3F7DFF88CC0ACF1040CDCF889
:1032900000C0CCF3881C07FB0CF40CE01E4FB7FBFE
:1032A000F3F7DFF870C0ACF1040CDCF800C0CCF32D
:1032B000881C07FB0CF4174F3F1F3F68C7F30147FB
:1032C0007F1C7D00B4FBF5F7076002E0124F07603A
:1032D00000BF00BF0F4F3F6807F0F0010909104F12
:1032E0007A5C0768D74047600A4F3F6807F4E051AF
:1032F000890A0B4F7A5C4768D7408760054F3F6863
:1033000007F46041490B064F7A5C4768D740C760B5
:10331000F0BD0000083802400024F40000127A00DA
:103320001C00002081B241F08001044A126802F0C2
:10333000800262EA0101014A116070470C280040D6
:1033400010B5014600200022054B1B68054C03EA1E
:10335000040202EA01030BB1012000E0002010BDCD
:103360000C2800407F7F010010B54FF48060FFF70C
:10337000E7FF012805D18002FFF7D4FF00200349B1
:1033800008804FF48000FFF793F810BD360000204E
:1033900000B587B03248007800F0040008B107B0EB
:1033A00000BD01210220FFF7E9FE0121C803FFF75C
:1033B00005FF3820059002208DF8180000208DF8B8
:1033C0001A0003208DF8190000208DF81B0005A9B4
:1033D0002448FFF7C7F9062203212248FFF70AFA1B
:1033E000062204211F48FFF705FA062205211D4881
:1033F000FFF700FA0121C803FFF7F0FE00214FF4A8
:103400000040FFF7EBFE0020ADF800004FF48270A3
:10341000ADF802000020ADF804000220ADF806006F
:103420000120ADF808004002ADF80A001020ADF808
:103430000C000020ADF80E000720ADF81000694622
:10344000094800F07CF80121074800F05EF80448C4
:10345000007840F004000249087000BF9FE70000B8
:103460005800002000040240003C004010B5044613
:10347000204600F05FF810BD002001490870704739
:103480005800002070B5054600BF0221284600F014
:1034900048F80028F9D0FF21284600F04EF800BF78
:1034A0000121284600F03DF80028F9D0284600F018
:1034B00041F8C4B200BF8021284600F032F801284C
:1034C000F9D0204670BD70B505460E4600BF0221FA
:1034D000284600F026F80028F9D03146284600F0AA
:1034E0002CF800BF0121284600F01BF80028F9D075
:1034F000284600F01FF8C4B200BF8021284600F023
:1035000010F80128F9D0204670BD21B1028842F0A0
:103510004002028004E002884FF6BF731A40028026
:1035200070470246002013890B400BB1012000E0D8
:10353000002070470146888970478181704710B527
:103540000022028802F441520B884C8823438C8865
:103550002343CC8823430C8923434C8923438C8900
:103560002343CC8923431A430280838B4FF2FF7499
:10357000234083830B8A038210BD704730B500223D
:103580008B071C0F0F2303FA04F20B4B8C1053F81C
:1035900024309343084C8D1044F8253023468C107A
:1035A00053F824308C07240F00FA04F42343024C10
:1035B0008D1044F8253030BD0838014070B52DED30
:1035C000028B82B006460C46002507E001AA0121C5
:1035D000304600F043F8BDF904000544201EA4F174
:1035E0000101CCB2F2D100EE105AF8EEC00A00EEA2
:1035F000104AB8EE400A80EE801A0C4880ED001A9E
:1036000090ED000ADFED0A0A80EE201A80ED001A24
:10361000006801F079FD41EC180B53EC182B05A064
:10362000FCF736FE02B0BDEC028B70BD78000020C6
:10363000000070427364703378206F66667365743F
:103640003A25660D0A0000009FED020A024981ED4D
:10365000000A704700000000780000202DE9F041CA
:1036600007460E461546FFF7D1F9791CC8B2FFF799
:1036700091F9FFF717FA00241DE00CB1FFF7E0F80D
:10368000FFF75AF925F81400FFF7DAF815F81400D7
:10369000000200B225F81400FFF74EF935F81410B7
:1036A000084400B225F81400FFF7CAF8FFF744F900
:1036B0008046601CC4B2B442DFDBFFF713F9FFF7AA
:1036C000CFF9BDE8F0812DE9F04105460C46261200
:1036D000E7B24FF00008FFF799F92846FFF75AF9CB
:1036E000FFF7E0F980463046FFF754F9FFF7DAF9C3
:1036F0003846FFF74FF9FFF7D5F9FFF7B1F9BDE805
:10370000F08100000020044981F87E00FF2102487A
:1037100080F87F10704700009800002010B508481E
:10372000007838B10748D0ED1B0AB0EE600A0648B1
:10373000FFF7C2FB034890ED1D0A80ED120A10BD91
:1037400088000020980000208C000020174890F886
:103750007C0090B1154890F97E0000280DDBB7EE93
:10376000000A124890F97E10443000EB810080ED91
:10377000000A00200D4981F87C000C4890F87D007B
:1037800090B10A4890F97F0000280DDBB7EE000ADF
:10379000064890F97F10443000EB810080ED000A6C
:1037A0000021024880F87D1070470000980000203A
:1037B00010B5FEF76BFB044880ED190AFEF7D0FA4E
:1037C000014880ED1A0A10BD980000200CB50020B9
:1037D000019000903448006840F48030324908601D
:1037E00000BF3148006800F4003000900198401C90
:1037F0000190009818B90198B0F5A04FF1D12A486E
:10380000006800F4003010B10120009001E00020B9
:1038100000900098012846D123484030006840F0CD
:1038200080502149403108602048006840F4404001
:103830001E4908601C48083000681B4908310860B0
:103840000846006840F4004008600846006840F4FC
:10385000A05008601648091F0860081F006840F063
:103860008070091F086000BF0F48006800F00070FA
:103870000028F9D040F205700E4908600A48083067
:10388000006820F003000849083108600846006815
:1038900040F00200086000BF03480830006800F0F4
:1038A0000C000828F8D10CBD003802400070004020
:1038B00008544007003C0240042808D14FF0E021A2
:1038C000096941F004014FF0E022116107E04FF077
:1038D000E021096921F004014FF0E02211617047F5
:1038E0007047000010B51548006840F47000134997
:1038F00008601348006840F001001149086000208A
:103900000F49083108600E4800680E4908400C490C
:1039100008600D48091D0860081F006820F4802019
:10392000091F0860002006490C310860FFF74EFFB0
:103930004FF0006001498039086010BD88ED00E05B
:1039400000380240FFFFF6FE1030002410B50121C0
:103950000A4800F0E8F878B10121084800F0D4F8EE
:103960000748FDF785FFFFF7F1FE05484038C06ABC
:10397000401C03494039C86210BD000000040040EB
:10398000D800002010B52DED048B01214C4800F02B
:10399000CAF800287ED00121494800F0B5F8032478
:1039A00006E0484830F81400401C464921F814004D
:1039B000201EA4F10101CCB2F3D143480088401C81
:1039C000414908800846008842F21071884202DDB1
:1039D00000203D4908803D480088401C3B49088044
:1039E00008460088B0F57A7F02DB40F2E7300880B5
:1039F00037480068401C36490860084690ED000AC8
:103A0000B8EE400ADFED330A20EE200ADFED320A7D
:103A100080EE201AF0EE418AB0EE680A00F064FAF7
:103A2000F7EE000A30EE200AF0EE000A80EE201ACF
:103A3000B0EE418AB0EE480A0120FEF7BDFA2448F4
:103A400090ED000AB8EE400ADFED240A20EE200ACD
:103A5000DFED210A80EE201AF0EE418AB0EE680A0E
:103A600000F042FAB0EE409A194890ED000AB8EE24
:103A7000400ADFED1B0A20EE200ADFED170A80EE78
:103A8000201AF0EE418AB0EE680A00F02DFADFED60
:103A9000150A00E011E000EE809A9FED130A39EE5E
:103AA000000ADFED120A80EE201AB0EE418AB0EE75
:103AB000480A0220FEF780FA00BFBDEC048B10BD5F
:103AC0000014004000000020060000203600002006
:103AD00018000020D00FC94100007A4438CD97412A
:103AE0001881A643CDCCCC3E3333B33F3333334080
:103AF00021B1028842F08002028004E002884FF681
:103B00007F731A4002807047CA430282704721B116
:103B1000028842F00102028004E002884FF6FE7340
:103B20001A400280704730B502460020002300246E
:103B3000158A05EA0103958905EA010413B10CB160
:103B4000012000E0002030BD1AB183890B4383813E
:103B500002E083898B4383817047000070B50024A5
:103B600000220023058C4FF6FF6635400584028C49
:103B70008388848B4FF68F752C404FF6FC752C4054
:103B80000D882C434FF6FF552A408D894FF6FF765E
:103B900006EA05252A434D8806EA05252A43154DE0
:103BA000A84202D0144DA8421DD14FF2FF752A4001
:103BB000CD894FF6FF7606EA05252A434FF6FF35F5
:103BC0002A408D8806EA05252A434EF6FF752B40CC
:103BD0004DF6FF752B400D8A06EA05152B434D8ADD
:103BE00006EA05152B43838084838D68C5630284B0
:103BF00070BD000000000140000401400A460021A1
:103C0000818B4FF6F7731940114381837047000091
:103C100000220288184B98420ED0184B98420BD0C5
:103C2000B0F1804F08D0164B984205D0154B984202
:103C300002D0154B984204D14FF68F731A404B882F
:103C40001A43124B984207D0114B984204D04FF6BA
:103C5000FF431A400B891A4302804B68C3620B88EA
:103C60000385054B984202D0044B984201D18B7AD0
:103C70000386012383827047000001400004014055
:103C80000004004000080040000C0040001000400C
:103C90000014004070B51548007880F001052146F9
:103CA00013A0FCF7F5FA0821134800F049F848B1D1
:103CB000114800F0E7F808210F4800F023F80FA0A2
:103CC000FCF7E6FA40F225510B4800F046F860B1E7
:103CD000094800F0D7F8C4B2214605A0FCF7D8FA8D
:103CE000AC2C02D101200649087070BD3B000020B9
:103CF00072782025780D0A00001001406F7265006F
:103D00003D00002001F40072B2F5007F00D100BF39
:103D1000CA430280704721B1828942F400528281F5
:103D200004E082894DF6FF731A40828170471AB110
:103D3000838A0B43838202E0838A8B4383827047AA
:103D400002460020B1F5007F00D100BF13880B4070
:103D50000BB1012000E00020704770B5024600243E
:103D600000230025002040F66A16B14200D100BFB2
:103D7000C1F3421501F01F03012606FA03F3012DDA
:103D800002D19689334006E0022D02D1168A3340D3
:103D900001E0968A33400C12012606FA04F41688D4
:103DA000344013B10CB1012000E0002070BD0000D0
:103DB0002DE9FF4705460E460024A14600BFA04658
:103DC000B08900B100BF2C8A24F44054F088044329
:103DD0002C82AC8941F20C608443B088318908435D
:103DE000718908430443AC81AC8A24F44074B089DF
:103DF0000443AC826846FFF721FA2048854202D08E
:103E00001F48854202D1DDF80C9001E0DDF80890F2
:103E1000A88900F4004040B109EBC90000EB09108B
:103E200031684900B0FBF1F707E009EBC90000EB8E
:103E3000091031688900B0FBF1F76420B7FBF0F09E
:103E400004012009642101FB1078A88900F40040D6
:103E500040B1322000EBC800B0FBF1F000F00700E9
:103E6000044308E0322000EB08106421B0FBF1F0BD
:103E700000F00F0004432C81BDE8FF8700100140D3
:103E80000014014001468888C0F30800704700BF55
:103E9000FEE703B401984100009850EAC12018BF22
:103EA00004204A0D18BF40F0010040F2FF72B2EB4F
:103EB000515F08BF40F00200012808BF052002B092
:103EC00070474100080218BF04200A0E18BF40F0D6
:103ED00001004FF07F4232EA010108BF40F00200CA
:103EE000012808BF0520704700B510EE101A2DED0F
:103EF000028B81B0524A6846B2EB410F2ED94FF087
:103F0000E640B0EB410F94BF00204FF0FF3000902F
:103F10000098B0EE408A00286ADB10F0010F4BD009
:103F200068EE080A9FED471A9FED470A00EE810AE6
:103F30009FED461A10F0020F00EE801AB7EE000A4D
:103F400000EE810A02BF01B0BDEC028B00BD00BFD4
:103F500001B0B1EE400ABDEC028B00BD3C4B21F03C
:103F60000042934241D911F0004FDFED3A0A20EEB2
:103F7000201ADFED390A19BF31EE601A71EE200AFE
:103F800031EE201A71EE600ABDEEE01A11EE100A51
:103F90009FED321A00F0030000EEC10A9FED301AC7
:103FA000009000EEC10A9FED2F1A00EEC10A9FEDAE
:103FB0002E1A00EEC10AABE728EE080A9FED2B1A75
:103FC000DFED2B0A10F0020F40EE410A9FED291A97
:103FD00000EE201A61EE000AB0EE480A08EE200A50
:103FE000B6D101B0BDEC028B00BD00F095F88FE7B3
:103FF00018EE100A4000B0F17F4F0DD218EE100AF3
:10400000FFF75FFF042808BF00F07EF8B0EE480A13
:1040100001B0BDEC028B00BD09D10120FCF72EFAE6
:1040200001B0BDEC028B5DF804EB00F065B801B0A7
:10403000B0EE480ABDEC028B5DF804EB00F059B815
:10404000B61F927EB93AB2BACA9F2A3DDDFFFFBEC3
:10405000490E494683F9223F0000004B0000C93F4A
:1040600000A0FD390020A2331A61342C336D4C3985
:10407000DA82083CA0AA2ABE00B52DED048BB0EE72
:10408000409AF0EE609A83B051EC190B00F086FE76
:1040900041EC180B18EE100A18EE901A8DED008BFB
:1040A000002818BF0120084320F00040C0F17F60C5
:1040B00000F1E040C00F14D019EE101A19EE900A6A
:1040C0008DED009B002918BF0121084320F000401E
:1040D000C0F17F6000F1E040C00F04BF0120FCF799
:1040E000CDF9B0EE480A03B0F0EE680ABDEC048BDF
:1040F00000BD30EE000A7047DFED020A80EEA00A34
:1041000070470000000000009FED020A20EE000A48
:1041100070470000000000102DE9F0014FF07F42D1
:10412000B2EB410F9FBF4FF0FF310160BDE8F001DE
:1041300070474FF0004242EA0123C1F3C752783A78
:10414000551112F01F0C434CCCF120067C44C1F3F6
:10415000C752A2F178024FEA621204EB820254F8CD
:10416000254008BFD2E9015612D0556804FA0CF474
:1041700025FA06F73C43976805FA0CF527FA06F886
:10418000D26807FA0CFCF24045EA08054CEA020640
:10419000A4FB034CA5FB0352A6FB03631D449D42F5
:1041A00034BF012600261319334416B1934202D9B5
:1041B00003E0934201D2012200E00022624402F1B6
:1041C000200C9206DC0C42EA443200EE102A5B031B
:1041D000DFED210AF8EEC01A00EE103A4FEA9C1CFF
:1041E00011F0004FB8EE400AC0F800C020EE201ACF
:1041F00000EE105ADFED190AB8EE400A20EE200A50
:1042000071EE810A70EE800A10EE902A02F50062CB
:104210006FF30B0200EE902A70EEE11A31EEC11A34
:10422000DFED101A30EE411A9FED0D0A20EE800AE4
:1042300001EE210A9FED0C1A00EE810A04BFBDE8D1
:10424000F0017047CCF180510160BDE8F001B1EEA2
:10425000400A7047DC100000000000360000802C8F
:1042600022AAFD29DB0FC92F0000C92F014600BF7C
:104270007047000010B50248FFF704F910BD0000B8
:10428000003C004010B5044621460248FFF71BF9E8
:1042900010BD0000003C004010B504466FF0040063
:1042A000FFF70AFBE11704EB5171C1F3C701074A9D
:1042B00011701046007800EB4001C1EBC0104FF6C2
:1042C000FF7101EAC0000249088010BD9000002083
:1042D0009200002070B504464FF4077094FBF0F094
:1042E000C6B24FF4077094FBF0F100FB114085B2A9
:1042F00005E04FF4077000F02FF8701EC6B2002ED4
:10430000F7D115B1284600F027F870BD0146114AD3
:1043100012784A434FF0E0235A6100229A611A460C
:10432000126942F001021A6100BF4FF0E0221069E9
:1043300000F001021AB100F48032002AF5D04FF0EB
:10434000E022126922F001024FF0E0231A610022FC
:104350009A617047900000200146114A12884A4332
:104360004FF0E0235A6100229A611A46126942F026
:1043700001021A6100BF4FF0E022106900F0010253
:104380001AB100F48032002AF5D04FF0E022126911
:1043900022F001024FF0E0231A6100229A61704777
:1043A0009200002000BF054A128802F04002002A55
:1043B000F9D0C2B2014B1B1D1A8070470044004067
:1043C00010B50420FFF7A2FF10BD0000A820FFF7E2
:1043D00063FF4FF4E13000F0C3F8FEF75DFEFFF736
:1043E0004BF8FEF7A5FB6420FFF774FFFEF7D2FB46
:1043F000FDF7F8F9FDF74AF8FDF75AFBFEF71AFD4D
:10440000FEF74CFAFEF7B0F8FDF79AFD00204A4996
:10441000086000BF49480088C828FBDB0120FEF780
:10442000A7FBFF2046490870FC20464981F8280078
:1044300045484178434880F82910012180F82B1025
:104440000021C16241A0FBF723FF6420FFF742FF78
:10445000C820FEF7A9FCFDF719FD3A4880ED190ABE
:10446000FDF77EFC374880ED1A0AC820FDF752FBA5
:10447000344880ED1B0A4220FFF7E6F843F215614D
:104480004220FFF720F9C8214220FFF797F8FFF7F5
:1044900039F96420FFF71EFF4CE028480088B0F58A
:1044A000FA7F04DB002025490880FEF731FB234812
:1044B0004088022835DB00202049488027480078C2
:1044C00068B3FEF725FBC820FFF704FFFEF720FBCB
:1044D000C820FFF7FFFEFEF71BFBC820FEF764FCB9
:1044E000FDF7D4FC174880ED190AFDF739FC154893
:1044F00080ED1A0AC820FDF70DFB124880ED1B0A5B
:10450000FEF706FBC820FFF7E5FEFEF701FBC8201B
:10451000FFF7E0FEFEF7FCFA002010490870FFF7F5
:10452000FDF806488088322804DB00200349888093
:10453000FFF73EF9B1E7000018000020000000205E
:104540000800002098000020025200084E69636BAA
:10455000656C426972640D0A000000003D00002095
:1045600010B586B0044601210846FEF707FE01217A
:104570004804FEF723FE072202211A48FEF73AF903
:10458000072203211748FEF735F90C20049002207A
:104590008DF8140003208DF8150000208DF816000A
:1045A00001208DF8170004A90E48FEF7DBF80094EF
:1045B0000020ADF80400ADF80600ADF80800ADF835
:1045C0000C000C20ADF80A0069460748FFF7F0FB25
:1045D00001210548FFF79FFB40210348FFF792FBAD
:1045E00006B010BD000002400044004010B5002994
:1045F0000AD00878002807D005487844FCF73EFB2D
:10460000002801D0002010BD0248784410BD0000F1
:10461000060D0000FE0C000021F00042A2F16052E5
:10462000B2F5801F01F0004328BFD2F17F6C0BD997
:104630005FEA001C43EAC20242EB507018BF7047A9
:1046400028BF20F001007047B2F5801FBCBF18469C
:1046500070474FEA410C1CF5001F02D2084600F0DB
:10466000C9BD70B500F010FB00000089FFF7F6BF70
:104670004FF00040A0F580007047000010B591EAAF
:10468000030F48BF83F0004300F15C84841A71EB90
:10469000030C05D2121943EB0C03001B61EB0C0158
:1046A000DFF824E14FEA1154A4EB135C1EEA430F38
:1046B00018BF9EEA445F73D023EA0E03DCF1200E9C
:1046C00021EA045143F4801332D322FA0CFE10EB9A
:1046D0000E0023FA0CFE41EB0E01CCF1200E03FA82
:1046E0000EFE10EB0E0051F10001B1F5801FCCF170
:1046F000200E32D201EB045112FA0EF2BDE8104046
:1047000058BF7047401C38BF5FEA420218BF70476D
:10471000002814BF20F0010041F100014FEA4103DD
:1047200013F5001F38BF7047A1F1C04100F0FABA7D
:10473000012A43EB0302ACF1200CDCF11F0E32BF67
:104740004FF0000E23FA0CF310EB030041EB045181
:10475000B4EB115FD0D0A1EB045101F580114908F1
:104760005FEA300001EB04510ED350F1000038BF76
:1047700012FA0EFE08D1BDE81040C9E7401C38BF50
:104780005FEA4202CAD1C3E7BDE810404FEA4103E5
:1047900013F5001F38BF7047A1F1C04100F0C2BA45
:1047A0009EEA445F08D011EA5E0FBDE8104004BFE6
:1047B00001F0004100207047BDE8104070B500F0E6
:1047C00063FA00BF64FBBE3E0000E0FF491058BF23
:1047D000C1F140415B1058BFC3F140438B42EFF33E
:1047E000008070472DE9C04130B4DFF8A0C23CEA38
:1047F000111418BF3CEA131400F0EC8081EA0305A1
:104800001CEA111444EAD57418BF1CEA131500F011
:10481000C780A4EB05044FF0004545EAC12145EAF5
:10482000C32341EA505143EA525304F17F74994241
:1048300004F500344FEAC0204FEAC22208BF90427C
:1048400000F09C804FEA13650FF24016765D4FEA48
:10485000134506FB05F7C7F1807706FB07F74FEA1C
:10486000D737A7FB03687642C8F58038A7FB06CE8A
:1048700038BFA8F1010807FB08E64FF0000EA6FBC1
:10488000028CE6FB03CEDCF1000CCEF1004E38BF0B
:10489000AEF1010EA6FB0C584FF000074FF00005DB
:1048A000E6FB0E87A1FB08C6A0FB07CE16EB0E06A3
:1048B00045F10005E1FB076515F1E04E7EBFA4F56B
:1048C00080345FEA46066D4116F1800745F1000528
:1048D0004FEA17274FEA066647EA0567A6F1DE4664
:1048E000B6F1805F4FEA15251FD9384624F0010C38
:1048F00005EBC471BCF1FE6F01EB0C1102D8F0BCEA
:10490000BDE8008124425CBF01F5801E9EEAC47FA1
:1049100002D4F0BCBDE80081244238D4F0BCA1F13F
:10492000C041BDE8004100F0FDB94FEAD22242EAA1
:1049300043524FEAD323A7FB02864FEAD02040EA36
:10494000415007FB03661EEA0E0F4FEAD12105FB1B
:10495000026658BFA6EB0056B6EB00564FEA520E61
:104960004EEAC37E18EB0E0E56EB530EBDD518EB78
:1049700002085E417F1C55F10005B6E74FF4801533
:104980004FF000074FF000064FF00008ADE7F0BC15
:104990004FF0000001F1C04101F00041BDE800818D
:1049A00011EA0C1F0CEA131500D00CE013EA0C1FDF
:1049B00000F025804FF00000F0BC81EA030101F017
:1049C0000041BDE80081F0BCBDE8004181EA03017F
:1049D00000F0A8B9F0BCBDE8004170B500F054F992
:1049E000097EFC3E00F007B881EA03014FF00000A9
:1049F00001F00041704781EA030100F093B9F0BC77
:104A0000BDE800414FF0000021497047FFFDFBF970
:104A1000F7F5F4F2F0EEEDEBE9E8E6E4E3E1E0DEF1
:104A2000DDDBDAD8D7D5D4D3D1D0CFCDCCCBCAC863
:104A3000C7C6C5C4C2C1C0BFBEBDBCBBBAB9B8B78A
:104A4000B6B5B4B3B2B1B0AFAEADACABAAA9A8A87D
:104A5000A7A6A5A4A3A3A2A1A09F9F9E9D9C9C9B4B
:104A60009A999998979796959594939392919190F6
:104A70008F8F8E8E8D8C8C8B8B8A89898888878787
:104A80008685858484838382828181800000FF07FC
:104A90000000F87FB0FA80F310FA03F10AD0C3F1F6
:104AA0001D0303F580634FEA41504FEA035202EBC6
:104AB000D12170474FF000007047000051EA030C0D
:104AC00017D41CF5801F58BFBCF5801F00F106806D
:104AD000994218BF704708BF9042704707D711F539
:104AE000801F58BF13F5801F19D49942704789421F
:104AF00070471CF5801F08D5BCF5801FF7D58B4289
:104B000018BF704708BF824270474FF4001C1CEB6F
:104B1000410F38BF1CEB430F01D28B42704770B579
:104B200000F0B2F8922449004FF000514FF080534A
:104B3000FFF74CBEDFF848C170B51CEA111E1EBF5E
:104B40001CEA13159EEA0C0F95EA0C0F00F06F801B
:104B500081EA030423EA4C134EEAD47E21EA4C1185
:104B600041F4801143F48013AE44A1FB024CA0FB3E
:104B70000365AEF17F7E361955EB0C05A1FB034CA6
:104B80004CF10003A0FB021C16EB0C06654153F12F
:104B90000003094218BF46F0010613F4007F0BD151
:104BA0004FEA03314FEA0530340341EA155140EA38
:104BB00016506FF003020AE04FEAC3214FEAC52006
:104BC000F40241EA555140EA56506FF0020202EBFE
:104BD0002E4201EB025585EACE710AD05FEA440C01
:104BE00018BF24F0004450F1000041F1000120EA18
:104BF000D47040F2FE7C624500D270BDA84214BF62
:104C00004FF080444FF04044002E08BF0024BEF116
:104C1000806FA8BFA1F1C041BDE8704080F28280E2
:104C20004FF0000001F1C04101F0004170479EEAE1
:104C30000C0F0CEA131518BF95EA0C0F06D04FF0B5
:104C4000000081EA030E0EF0004170BD00F01CF878
:104C50008900013E00F007B800F009B84FEA430CA4
:104C60005FEA5C5C08D081EA030100F05BB84FEAC0
:104C7000410C5FEA5C5CF6D14FF0000001497047DF
:104C80000000FF070000F87F0EF1020E2EF0030E69
:104C90005EF8046B364205D4012A43EB030515F593
:104CA000001F12D8012841EB010C1CF5001F0CD885
:104CB0000ED14FEAD17C15F5001F0CEB4C0C0CF11A
:104CC000020C08BF4CEBD37C04E04FF0080C01E071
:104CD0004FEAD37C0CEB4C0526FA05F606F00706E6
:104CE000B6F1040C06D20EEB860CBDE870404CF019
:104CF000010C6047DFE80CF0090B02024FF00041A5
:104D00004FF00000A1F5002170BD194610460128A2
:104D100051EB010418BFD4F5001484BF002001F04A
:104D2000004170BD0808A0F500114FEA310170473D
:104D300053EA010C17D41CF5801F58BFBCF5801F27
:104D400000F106808B4218BF704708BF824270474F
:104D500007D713F5801F58BF11F5801F19D48B4258
:104D600070479B4270471CF5801F08D5BCF5801F1B
:104D7000F7D5994218BF704708BF904270474FF46B
:104D8000001C1CEB430F38BF1CEB410F01D29942B2
:104D900070470FB40CBC03BCFFF7C1BE2DE9F04156
:104DA00001F5801CBCF5001FC0F2A9804FEA115C20
:104DB00021EA0C510CF1FD0C41F480115FEA5C0C0E
:104DC0000CF5C07C01D34000494130A4890241EA7E
:104DD000905187028E0E0A0CA45D04FB04F602FBC0
:104DE00006F6C6F14046A4FB0662F60D46EA4226E8
:104DF00006FB06F4A4FB01235242C3F1404338BF33
:104E00005B1EA6FB02420024E6FB0324D20B42EA0F
:104E10004446A6FB0623A1FB02E2A3FB07E4E3FB57
:104E200061426442C2F1404E38BFAEF1010EA6FBB2
:104E300004234FF00002E6FB0E32A2FB03463400CF
:104E4000E2FB6264A1FB06E6A4FB07E8E4FB616801
:104E50007642C8F1405838BFA8F10108A2FB06E429
:104E6000A3FB08E5E2FB6854A1FB05E6A7FB04E809
:104E7000E1FB648618F1200556F10006A809A8F1A7
:104E80001B08B10908F03F08B8F10A0F40EA866034
:104E90001CD901EB0C51BDE8F08100BFFCF5EEE838
:104EA000E2DDD8D3CFCBC7C3C0BDB9B6B4B1AEACC9
:104EB000A9A7A5A3A19F9D9B9A9896959392908F41
:104EC0008D8C8B898887868584838281A0FB00688E
:104ED00000FB01F208EB4208B8EB872807D534182D
:104EE00058EB0104D5D5401C51F10001D1E7341A2B
:104EF00078EB0104CDD4401E71F10001C9E75FEAEF
:104F00004C0C5FEA9C5C0DD105D34FF0000001F022
:104F10000041BDE8F081BDE8F04170B5FFF7B4FE97
:104F20006DDBFFBEBDE8F0414FF000000049704767
:104F30000000F87F10B591EA030F48BF83F00043EB
:104F40003FF5A4AB841A71EB030C07D212198CF055
:104F5000004C43EB0C03001B61EB0C01DFF8A4E1F8
:104F60004FEA1154A4EB135C1EEA430F18BF9EEAEC
:104F7000445F00F0B08023EA6E03524221EA0451FC
:104F8000C3EB6E0338BF5B1EDCF1200E25D322FA83
:104F90000CFE10EB0E0043FA0CFE41EB0E01CCF1BF
:104FA000200E03FA0EFE10EB0E0051F10001CCF1C1
:104FB000200E29D412FA0EF201EB0451BDE8104084
:104FC00058BF7047401C1CBFB2F1004F704700280B
:104FD0000CBF491C20F00100704712EB020E43EB9E
:104FE000030218BF4FF0010E4EEA4202ACF1200C52
:104FF000DCF11E0E54D943FA0CFE10EB0E0051F1F9
:10500000FF31CCF11E0ED5D50EF1010E12FA0EFEB7
:10501000404141EB010101EB445C5FEA5C5C10D96B
:1050200010EBDE7001EB045138BFBEF1004FBDE85C
:10503000104018BF704700280CBF491C20F0010029
:10504000704730D24FEAD42C11F5001124F40064DB
:105050001BD0B1FA81F20B3AA41AA41ED2F120039C
:10506000914030FA03F31943904001EBCC71002CCE
:1050700001EB0451BDE81040A8BF704701F1C041E9
:105080004FF0000001F000417047B0FA80F310FAD1
:1050900003F100D110BDE41A173C4805C90AE4E742
:1050A00001EB045110BD491001EB0451BDE8104063
:1050B0004FEA300002E04FF0000170474A0008BF9D
:1050C0000042F8D0B2F5001F28BF704701F0004140
:1050D0004FF0000070479EEA445F07D011EA5E0F70
:1050E000BDE8104004BF002100207047BDE810401B
:1050F00070B5FFF7C9FD00BF40DFF63E83F0004109
:10510000104670470000E0FF43004FEAD30C4FEA1F
:105110003C0C43401FBF40070CF1605113F0FE4FA1
:1051200070471CF0006F03D100200CF00041704765
:105130000CF0004343EA507010B540EACC0000F098
:105140000EF800BF000000924FEA0001FFF7EABD31
:105150004FF000414FF00000A1F5002170470EF123
:10516000020E2EF0030E5EF8044B244204D44FEAE4
:105170004102B2F17F4F11D84FEA4003B3F17F4FA4
:105180000CD80ED14FEAD07CB2F17F4F0CEB4C0C17
:105190000CF1020C08BF4CEBD17C04E04FF0080C82
:1051A00001E04FEAD17C0CEB4C0324FA03F404F049
:1051B0000704B4F1040C06D20EEB840CBDE81040D9
:1051C0004CF0010C6047DFE80CF0070802024FF0DA
:1051D0000040A0F5800010BD0846420018BFD2F183
:1051E000807288BF00F0004010BD4FF04070E1EECB
:1051F000100A7047FF2141EAD050C0057047FBF705
:1052000075BA0024303132333435363738394142BB
:105210004344454640305800303132333435363718
:1052200038396162636465664030780000000000D0
:105230006E83F9A22915444ED15727FCC0DD34F501
:10524000999562DB4190433CAB6351FE0240000004
:10525000000000A00000000005400000000000C8A1
:10526000000000000C4000000000409C0000000016
:10527000194000000020BCBE0000000034400000C7
:10528000BFC91B8E00000004B5400000504BCFD0BA
:105290006607E2CF010000006C4100003E8251AA87
:1052A000DFEEA73401000000D9420000DCB5A0E227
:1052B0003A301F97FFFFFFFFB4450000FD25A0C84F
:1052C000E9A3C14FFFFFFFFFFF3F00000000008088
:1052D00000000000FF3F0000000000800000000010
:1052E0001C5300080000002098000000C4010008C2
:1052F000B453000898000020F00A0000E001000804
:105300001C00000043000000F8FFFFFF0C0000003D
:105310000E0000000F0000002E0000000000000042
:10532000000000000000000000000000000000007D
:105330000000000000000000000000000102030463
:105340000102030406070809000000000000000035
:10535000000000000000000000000000000000004D
:10536000000000000000000000000000000000003D
:10537000000000000000000000000000000000002D
:10538000000000000000000000000000000000001D
:10539000000000000000000000000000000000000D
:1053A00000000000000000000000000000000000FD
:0453B00000000000F9
:040000050800018965
:00000001FF
